S01300004170706C69636174696F6E2E737265639D
S11300000C942A000C946A020C9491020C94B80289
S11300100C9447000C9447000C9447000C94470040
S11300200C9447000C9447000C9447000C94470030
S11300300C9447000C9447000C9447000C94470020
S11300400C9447000C9447000C9447000C94470010
S11300500C94470011241FBECFE5D8E0DEBFCDBF0E
S113006010E0A0E6B0E0EAECF5E002C005900D92E5
S1130070A036B107D9F720E0A0E6B0E001C01D9298
S1130080A636B207E1F70E94FF000C94E3020C9439
S11300900000CF93DF93C82FD62F40E00E94390190
S11300A0C234A1F018F4C13431F030C0C334C9F003
S11300B0C43411F12BC02BB381E090E002C0880F4F
S11300C0991FDA95E2F7822B8BBB20C028B381E01D
S11300D090E002C0880F991FDA95E2F7822B88BB63
S11300E015C025B381E090E002C0880F991FDA950E
S11300F0E2F7822B85BB0AC022B381E090E002C004
S1130100880F991FDA95E2F7822B82BBDF91CF919A
S113011008950E94AD01089541E00E9439010895B7
S11301208234A1F018F4813431F008958334C9F095
S1130130843411F108952BB381E090E002C0880F5C
S1130140991F6A95E2F782278BBB089528B381E053
S113015090E002C0880F991F6A95E2F7822788BB56
S1130160089525B381E090E002C0880F991F6A9535
S1130170E2F7822785BB089522B381E090E002C0B4
S1130180880F991F6A95E2F7822782BB089566E07B
S113019081E40E9490002FEF81EE94E02150804092
S11301A09040E1F700C00000089565E081E40E94FA
S11301B090002FEF81EE94E0215080409040E1F7D1
S11301C000C00000089567E082E40E9490002FEFD1
S11301D081EE94E0215080409040E1F700C000009F
S11301E0089564E081E40E9490002FEF81EE94E092
S11301F0215080409040E1F700C00000089566E07F
S113020081E40E948C0065E081E40E948C0064E03B
S113021081E40E948C0067E082E40E948C0062E02A
S113022080E00E94DE0162E081E00E94DE0162E083
S113023082E00E94DE0160E085ED90E00E945502BC
S113024061E083EE90E00E94550262E087EC90E06A
S11302500E94550267E084E40E9449000E94DF0284
S113026067E084E40E9489008111FACF0E94F100C2
S1130270F7CF41113BC08234A9F018F4813431F036
S113028008958334D9F0843429F108952AB381E0A0
S113029090E002C0880F991F6A95E2F78095822347
S11302A08ABB089527B381E090E002C0880F991FAC
S11302B06A95E2F78095822387BB089524B381E091
S11302C090E002C0880F991F6A95E2F78095822317
S11302D084BB089521B381E090E002C0880F991F88
S11302E06A95E2F78095822381BB08958234A1F058
S11302F018F4813431F008958334C9F0843411F151
S113030008952AB381E090E002C0880F991F6A958E
S1130310E2F7822B8ABB089527B381E090E002C004
S1130320880F991F6A95E2F7822B87BB089524B33F
S113033081E090E002C0880F991F6A95E2F7822B52
S113034084BB089521B381E090E002C0880F991F17
S11303506A95E2F7822B81BB0895823491F018F4F8
S1130360813431F029C08334A9F08434E1F024C00D
S113037089B390E002C0959587956A95E2F78170FC
S1130380089586B390E002C0959587956A95E2F743
S11303908170089583B390E002C0959587956A951E
S11303A0E2F78170089580B390E002C09595879537
S11303B06A95E2F78170089580E00895CF93C62F7F
S11303C0813089F120F0823009F459C06CC08BB7B8
S11303D080648BBF40E062E084E40E943901C13054
S11303E069F028F0C23089F0C330B1F05CC085B741
S11303F08D7F85BF85B78E7F85BF55C085B78D7FBF
S113040085BF85B7816085BF4EC085B7826085BFD3
S113041085B78E7F85BF47C085B7826085BF85B7A6
S1130420816085BF40C08BB780688BBF40E063E0CC
S113043084E40E943901C13069F028F0C23089F0A7
S1130440C330B1F030C085B7877F85BF85B78B7F58
S113045085BF29C085B7877F85BF85B7846085BF81
S113046022C085B7886085BF85B78B7F85BF1BC0D9
S113047085B7886085BF85B7846085BF14C08BB796
S113048080628BBF40E062E082E40E943901C230A6
S113049019F0C33029F007C084B78F7B84BF03C031
S11304A084B7806484BFCF910895613049F018F017
S11304B0623059F008959093650080936400089524
S11304C090936300809362000895909361008093F9
S11304D0600008951F920F920FB60F9211242F936C
S11304E03F934F935F936F937F938F939F93AF93B8
S11304F0BF93EF93FF93E0916400F0916500099539
S1130500FF91EF91BF91AF919F918F917F916F91E7
S11305105F914F913F912F910F900FBE0F901F90BD
S113052018951F920F920FB60F9211242F933F9399
S11305304F935F936F937F938F939F93AF93BF93E7
S1130540EF93FF93E0916200F09163000995FF91AE
S1130550EF91BF91AF919F918F917F916F915F9137
S11305604F913F912F910F900FBE0F901F901895B0
S11305701F920F920FB60F9211242F933F934F9314
S11305805F936F937F938F939F93AF93BF93EF93F7
S1130590FF93E0916000F09161000995FF91EF9164
S11305A0BF91AF919F918F917F916F915F914F9187
S11305B03F912F910F900FBE0F901F9018958FB7FA
S10D05C080688FBF0895F894FFCF00
S9030000FC
