S01300004170706C69636174696F6E2E737265639D
S11300000C9434000C947C030C94A3030C94CA0346
S11300100C9451000C9451000C9451000C949E06C5
S11300200C9451000C9451000C9451000C94510008
S11300300C9451000C9451000C9451000C945100F8
S11300400C9451000C9451000C9451000C945100E8
S11300500C945100D801E501F201FF010C021902D0
S11300602602330240024D0211241FBECFE5D8E020
S1130070DEBFCDBF10E0A0E6B0E0E0EFF4E102C0E7
S113008005900D92AC37B107D9F724E0ACE7B0E0A6
S113009001C01D92AE3FB207E1F70E94C0020C946A
S11300A0760A0C940000CF93C82F88B3826088BB73
S11300B0C4FF04C08BB380618BBB03C08BB38F7E42
S11300C08BBBC5FF04C08BB380628BBB03C08BB3F7
S11300D08F7D8BBBC6FF04C08BB380648BBB03C016
S11300E08BB38F7B8BBBCC2324F48BB380688BBB0B
S11300F003C08BB38F778BBB88B3886088BB61E008
S113010070E080E090E00E94F30288B3877F88BBB0
S113011061E070E080E090E00E94F302C0FF04C060
S11301208BB380618BBB03C08BB38F7E8BBBC1FF52
S113013004C08BB380628BBB03C08BB38F7D8BBB3E
S1130140C2FF04C08BB380648BBB03C08BB38F7BB3
S11301508BBBC3FF04C08BB380688BBB03C08BB362
S11301608F778BBB88B3886088BB61E070E080E0E8
S113017090E00E94F30288B3877F88BB61E070E05F
S113018080E090E00E94F302CF910895CF93C82FAE
S113019088B38D7F88BBC4FF04C08BB380618BBBE5
S11301A003C08BB38F7E8BBBC5FF04C08BB380624F
S11301B08BBB03C08BB38F7D8BBBC6FF04C08BB3DB
S11301C080648BBB03C08BB38F7B8BBBCC2324F4A9
S11301D08BB380688BBB03C08BB38F778BBB88B327
S11301E0886088BB61E070E080E090E00E94F302E8
S11301F088B3877F88BB61E070E080E090E00E9474
S1130200F302C0FF04C08BB380618BBB03C08BB30C
S11302108F7E8BBBC1FF04C08BB380628BBB03C0DA
S11302208BB38F7D8BBBC2FF04C08BB380648BBB4D
S113023003C08BB38F7B8BBBC3FF04C08BB38068BD
S11302408BBB03C08BB38F778BBB88B3886088BBB1
S113025061E070E080E090E00E94F30288B3877F61
S113026088BB61E070E080E090E00E94F302CF91EF
S1130270089587B3826087BB87B3886087BB8AB3DE
S113028080618ABB8AB380628ABB8AB380648ABB7A
S11302908AB380688ABB64E170E080E090E00E94E9
S11302A0F30282E00E94C60088E20E94C6008CE04D
S11302B00E94C60086E00E94C60081E00E94C6003B
S11302C06EE170E080E090E00E94F30208950F93E5
S11302D01F93CF938C01C0E003C00E945300CF5FF3
S11302E0F801EC0FF11D80818111F7CFCF911F919F
S11302F00F91089541E00E94080308958234A1F00B
S113030018F4813431F008958334C9F0843411F140
S113031008952BB381E090E002C0880F991F6A957D
S1130320E2F782278BBB089528B381E090E002C0F6
S1130330880F991F6A95E2F7822788BB089525B331
S113034081E090E002C0880F991F6A95E2F7822746
S113035085BB089522B381E090E002C0880F991F05
S11303606A95E2F7822782BB08958CEF84BB80EF05
S113037085BB0895E82F85B3886085BB85B3846009
S113038085BB613019F0623029F007C085B3877FDF
S113039085BB03C085B38B7F85BB8E2F90E08A30ED
S11303A0910508F086C0FC01E65DFF4F0C94560AE7
S11303B085B38F7785BB85B38F7B85BB85B38F7DF5
S11303C085BB85B38F7E85BB74C085B38F7785BBB2
S11303D085B38F7B85BB85B38F7D85BB85B38061FA
S11303E085BB67C085B38F7785BB85B38F7B85BBA2
S11303F085B3806285BB85B38F7E85BB5AC085B3C8
S11304008F7785BB85B38F7B85BB85B3806285BBC6
S113041085B3806185BB4DC085B38F7785BB85B3BC
S1130420806485BB85B38F7D85BB85B38F7E85BB9B
S113043040C085B38F7785BB85B3806485BB85B3A6
S11304408F7D85BB85B3806185BB33C085B38F77D2
S113045085BB85B3806485BB85B3806285BB85B36A
S11304608F7E85BB26C085B38F7785BB85B38064BB
S113047085BB85B3806285BB85B3806185BB19C0AC
S113048085B3806885BB85B38F7B85BB85B38F7D42
S113049085BB85B38F7E85BB0CC085B3806885BB67
S11304A085B38F7B85BB85B38F7D85BB85B3806129
S11304B085BB61E070E080E090E00E94F302089563
S11304C0CF93DF93CDEC8C9FD12D1124D695D69567
S11304D0D6952D2F220F922F990F990F920F61E02D
S11304E0891B0E94BA01DC9FC12D1124C695C695B3
S11304F0C695CC0F8C2F880F880FC80F62E08D2F04
S11305008C1B0E94BA01DF91CF91089565E084E4C9
S11305100E947A0165E084E40E947E0188EE93E003
S11305200E94BB09F7CF66E084E40E947A0166E08A
S113053084E40E947E0188E893E10E94BB09F7CF1E
S11305400E94B501C0E0D0E009C080917C000E9407
S1130550600281E090E00E94BB092196CA3481E0E8
S1130560D8079CF380917C008F5F80937C00843655
S113057011F410927C0081E090E00E94BB09E2CF6C
S1130580EF92FF920F930E94390182E690E00E945D
S11305906701E12CF12C01E020E030E044E650E07A
S11305A06EE670E086E892E00E940B0820E030E0FE
S11305B044E650E061E770E083E992E00E940B08B2
S11305C002E020E030E044E650E064E770E080EAD6
S11305D092E00E940B080E945F0880E090E00F9177
S11305E0FF90EF9008959B01AC01A0E4B6E00E9457
S11305F05C0AAB01BC0180E090E0DC0103C0019621
S1130600A11DB11D84179507A607B707C0F3089568
S113061041113BC08234A9F018F4813431F00895BB
S11306208334D9F0843429F108952AB381E090E029
S113063002C0880F991F6A95E2F7809582238ABBCE
S1130640089527B381E090E002C0880F991F6A954E
S1130650E2F78095822387BB089524B381E090E07C
S113066002C0880F991F6A95E2F78095822384BBA4
S1130670089521B381E090E002C0880F991F6A9524
S1130680E2F78095822381BB08958234A1F018F4A7
S1130690813431F008958334C9F0843411F108951C
S11306A02AB381E090E002C0880F991F6A95E2F7AF
S11306B0822B8ABB089527B381E090E002C0880FA3
S11306C0991F6A95E2F7822B87BB089524B381E0D2
S11306D090E002C0880F991F6A95E2F7822B84BBD1
S11306E0089521B381E090E002C0880F991F6A95B4
S11306F0E2F7822B81BB08951F920F920FB60F92DF
S113070011242F933F934F935F936F937F938F9312
S11307109F93AF93BF93EF93FF93E0918100F09188
S113072082000995FF91EF91BF91AF919F918F91B5
S11307307F916F915F914F913F912F910F900FBED9
S11307400F901F9018951F920F920FB60F921124BD
S11307502F933F934F935F936F937F938F939F93C5
S1130760AF93BF93EF93FF93E0917F00F0918000EC
S11307700995FF91EF91BF91AF919F918F917F91D7
S11307806F915F914F913F912F910F900FBE0F90FA
S11307901F9018951F920F920FB60F9211242F934A
S11307A03F934F935F936F937F938F939F93AF93F5
S11307B0BF93EF93FF93E0917D00F0917E00099544
S11307C0FF91EF91BF91AF919F918F917F916F9125
S11307D05F914F913F912F910F900FBE0F901F90FB
S11307E01895E8E8F0E08DE890E091838083138227
S11307F01282E4E8F0E087EE93E09383828311822F
S11308001082ACE8B0E014969C938E9313971296E2
S1130810FC93EE93119708950F931F93CF93DF9357
S1130820EC010E94890880918300811105C00E9417
S1130830F10381E080938300209709F02496CE0190
S11308400197863E934008F056C0E0918800F091ED
S11308508900A8E8B0E002C0DF01FC018281938135
S11308608C179D0720F4808191810097A9F780E07F
S1130870E438F80709F442C00D911C9111970C5FFC
S11308801F4F808191818D939C93828193818C1BD6
S11308909D0B8930910510F1AF014C0F5D1FDA01FA
S11308A013969C938E931297D383C28312962D91A1
S11308B03C91139768E870E001C0BD01EB01A88189
S11308C0B98112968D919C91139782179307A8F37F
S11308D0EA01B983A883DB014D935C9322813381C0
S11308E08091600090916100821B930B9093610052
S11308F08093600005C000E010E002C000E010E05A
S11309000E944909C801DF91CF911F910F91089569
S11309100F931F93CF93DF93009741F1EC018C0168
S1130920045011090E948908F80142815381A8E802
S1130930B0E001C0DF01ED91FC9111972281338178
S113094024173507B8F32497F983E8830D931C9390
S11309508A819B812091600030916100820F931FF6
S113096090936100809360000E944909DF91CF91C8
S11309701F910F910895FC010396928381832FEFB9
S11309803FEF348323839683858390878783108204
S11309900895FC01118610860895CF93DF939C017E
S11309A0FB01DC011196CD91DC911297D383C283B4
S11309B08C819D81958384838C819D81DC01139638
S11309C07C936E9312977D836C8331872087F90122
S11309D080818F5F8083DF91CF910895CF93DF93E0
S11309E0EB01488159814F3F2FEF520721F4FC015D
S11309F0A781B0850DC0DC01139601C0DF011296FA
S1130A00ED91FC9113972081318142175307B0F780
S1130A101296ED91FC911397FB83EA83D583C483EB
S1130A20BD83AC831396DC93CE9312979987888702
S1130A30FC0120812F5F2083DF91CF910895CF9314
S1130A40DF93FC01A085B185C281D3818481958126
S1130A509D838C83C481D581828193819B838A8386
S1130A6011968D919C911297E817F90731F48481BE
S1130A70958112969C938E931197118610868C9172
S1130A8081508C93DF91CF9108951BBC89EF8ABD6F
S1130A908BE08EBD89B7806189BF089531E1FC0187
S1130AA03083319722E220833197A3E3A0833197E7
S1130AB060833197708331971082319760E8608347
S1130AC031971082319762E06083319763E06083ED
S1130AD0319764E06083319765E06083319766E025
S1130AE06083319767E06083319768E06083319772
S1130AF069E06083319760E1608331973083319797
S1130B0032E13083319733E13083319734E13083FC
S1130B10319735E13083319736E13083319737E1CE
S1130B203083319738E13083319739E1308331971D
S1130B3030E23083319731E230833197208331972B
S1130B4023E220833197408331975083319726E203
S1130B502083319727E22083319728E2208331973D
S1130B6029E22083319720E32083319721E32083F6
S1130B70869708950E944505A091FC04B091FD0458
S1130B80CD91CDBFDD91DEBFFF91EF91DF91CF918C
S1130B90BF91AF919F918F917F916F915F914F9191
S1130BA03F912F911F910F91FF90EF90DF90CF9085
S1130BB0BF90AF909F908F907F906F905F904F9079
S1130BC03F902F901F900F900FBE0F90089581E0DB
S1130BD008950F920FB6F8940F921F9211242F923A
S1130BE03F924F925F926F927F928F929F92AF92B9
S1130BF0BF92CF92DF92EF92FF920F931F932F93A6
S1130C003F934F935F936F937F938F939F93AF9390
S1130C10BF93CF93DF93EF93FF93A091FC04B09124
S1130C20FD040DB60D920EB60D920E94020AA0911B
S1130C30FC04B091FD04CD91CDBFDD91DEBFFF91E9
S1130C40EF91DF91CF91BF91AF919F918F917F9160
S1130C506F915F914F913F912F911F910F91FF9051
S1130C60EF90DF90CF90BF90AF909F908F907F9048
S1130C706F905F904F903F902F901F900F900FBEFA
S1130C800F9008950F920FB6F8940F921F921124AB
S1130C902F923F924F925F926F927F928F929F9288
S1130CA0AF92BF92CF92DF92EF92FF920F931F9376
S1130CB02F933F934F935F936F937F938F939F9360
S1130CC0AF93BF93CF93DF93EF93FF93A091FC0473
S1130CD0B091FD040DB60D920EB60D920E948F08D0
S1130CE081110E94020AA091FC04B091FD04CD91EF
S1130CF0CDBFDD91DEBFFF91EF91DF91CF91BF9129
S1130D00AF919F918F917F916F915F914F913F919F
S1130D102F911F910F91FF90EF90DF90CF90BF9094
S1130D20AF909F908F907F906F905F904F903F9087
S1130D302F901F900F900FBE0F9008950E944206AF
S1130D401895E0919704F09198048081811107C06F
S1130D508FEF9FEF90937804809377040895E09148
S1130D609704F09198040580F681E02D0680F781C0
S1130D70E02D828193819093780480937704089581
S1130D80CF93DF93EC018F89988D0E948804CE0164
S1130D900E948804DF91CF9108956F927F928F9281
S1130DA09F92AF92BF92CF92DF92EF920F931F93D5
S1130DB0CF93DF93CDB7DEB74C01F5018789908DD2
S1130DC0215031093C01620E731E20E00FC0822FB6
S1130DD090E0FB01E80FF91F3081D501A80FB91F7E
S1130DE059963C938081882319F02F5F283078F33B
S1130DF0F50110A2F8E0FE1518F46894EE24E3F867
S1130E00F501E68AE1A212A2C50102960E94C90474
S1130E10C5010C960E94C904F501B186A08689E03B
S1130E2090E08E19910995878487B38AA28A13A2C8
S1130E3014A215A216A217A2A801B401C3010E940C
S1130E404E05F50191838083C114D10419F0F60194
S1130E50B182A082DF91CF911F910F91EF90DF902B
S1130E60CF90BF90AF909F908F907F906F90089598
S1130E70CF93C0E010C08C2F90E09C01220F331F51
S1130E80220F331F220F331F820F931F85559B4F51
S1130E900E94BB04CF5FC93070F382EA94E00E94E1
S1130EA0BB0489E994E00E94BB048CE894E00E94AE
S1130EB0BB0483E894E00E94BB0482EA94E090932C
S1130EC098048093970489E994E09093960480931E
S1130ED09504CF910895CF93DF93EC010FB6F89466
S1130EE00F92809181048F5F809381048091FC0430
S1130EF09091FD04892B59F4D093FD04C093FC0414
S1130F0080918104813099F40E94380710C0809147
S1130F107D0481110CC0E091FC04F091FD049689DC
S1130F208E89891720F0D093FD04C093FC0480912E
S1130F3079048F5F809379048E8990917E04981749
S1130F4010F480937E0490E09C01220F331F220F43
S1130F50331F220F331F820F931FBE016E5F7F4F1B
S1130F6085559B4F0E94CD040F900FBE80917D0448
S1130F70882351F0E091FC04F091FD0496898E8958
S1130F80981710F40E94E905DF91CF9108950F930B
S1130F901F93CF93DF93EC0100917F0410918004A1
S1130FA08091FC049091FD0402960E941F05C00FDD
S1130FB0D11FE091FC04F091FD04D383C283C017D8
S1130FC0D10768F46091FC047091FD04809195044C
S1130FD0909196046E5F7F4F0E94EE0417C060915B
S1130FE0FC047091FD0480919704909198046E5FC5
S1130FF07F4F0E94EE048091770490917804C81783
S1131000D90720F4D0937804C0937704DF91CF916B
S11310101F910F9108952F923F924F925F926F927A
S11310207F928F929F92AF92BF92CF92DF92EF9274
S1131030FF920F931F93CF93DF933C011B015A013F
S11310402901CA010E940C046C01892B71F088E209
S113105090E00E940C04EC01892B19F0D88ECF8A01
S113106006C0C6010E94880402C0C0E0D0E02097F8
S113107091F0950140E050E0812C912C5E016701D4
S1131080E02E8201B101C3010E94CD06CE010E946F
S11310906B0781E001C08FEFDF91CF911F910F911A
S11310A0FF90EF90DF90CF90BF90AF909F908F9084
S11310B07F906F905F904F903F902F900895EF92A4
S11310C0FF920F930F2EF5E7EF2EF4E0FF2EF02D95
S11310D000E020E030E040E550E067E770E08FEFAB
S11310E099E00E940B08813081F4F8948FEF9FEF10
S11310F0909378048093770481E080937D04109228
S1131100800410927F040E94BA050F91FF90EF9023
S11311100895809174048F5F809374040895DF921E
S1131120EF92FF920F931F93CF93DF9380917404F8
S1131130811197C0E0907F04F09080048FEFE81A4B
S1131140F80AF0928004E0927F04E114F104B9F407
S1131150809197049091980420919504309196047D
S11311603093980420939704909396048093950465
S113117080917A048F5F80937A040E94A106809103
S1131180770490917804E816F90628F4D12C53C01A
S1131190DD24D39401C0D12CE0919704F0919804FC
S11311A08081811107C08FEF9FEF90937804809323
S11311B0770441C0E0919704F09198040580F6818A
S11311C0E02DC681D7818A819B81E816F90628F42F
S11311D090937804809377042EC08E010E5F1F4F86
S11311E0C8010E941F058C899D89892B21F0CE019D
S11311F00C960E941F058E8990917E04981710F416
S113120080937E0490E09C01220F331F220F331F32
S1131210220F331F820F931FB80185559B4F0E94E5
S1131220CD049E89E091FC04F091FD048689981711
S113123008F0AECFB1CFE091FC04F091FD048689B3
S113124090E0FC01EE0FFF1FEE0FFF1FEE0FFF1FDC
S11312508E0F9F1FFC01E555FB4F8081823040F4C7
S113126009C080917C048F5F80937C04D12C02C0E0
S1131270DD24D39480917B04882311F0DD24D3945E
S11312808D2DDF91CF911F910F91FF90EF90DF9003
S113129008950F931F93CF93DF930FB6F8940F9293
S11312A0809174048150809374048091740481113A
S11312B058C080918104811133C056C0E0919104DB
S11312C0F0919204C681D781CE010C960E941F052D
S11312D08E010E5F1F4FC8010E941F058E899091D9
S11312E07E04981710F480937E0490E09C01220FF2
S11312F0331F220F331F220F331F820F931FB80196
S113130085559B4F0E94CD049E89E091FC04F09189
S1131310FD048689981730F081E080937B0402C035
S1131320C0E0D0E080918C048111C8CFCD2B11F0A6
S11313300E94A106C0917C04CC2359F00E948F081E
S1131340882319F081E080937B04C150B9F710928F
S11313507C0480917B04882331F00E94E90581E0BC
S113136003C080E001C080E00F900FBEDF91CF91F9
S11313701F910F910895CF93DF93EC01892B49F0CE
S11313800E94890860E0CE010E94C7070E944909B3
S113139001C080E0811102C00E94E905DF91CF9174
S11313A00895CF93DF9324C00E948908C0918304D9
S11313B00E944909CC23E1F00FB6F8940F92E09112
S11313C08804F0918904C681D781CE0102960E94D7
S11313D01F0580918104815080938104809182044F
S11313E08150809382040F900FBECE010E94C006EC
S11313F0809182048111D8CFDF91CF9108950E940A
S1131400D109FDCF80917404882321F081E0809379
S11314107B04089510927B0420917E0401C0215026
S1131420822F90E0FC01EE0FFF1FEE0FFF1FEE0F67
S1131430FF1FE80FF91FE555FB4F3081332379F384
S1131440AC01440F551F440F551F440F551F480F3F
S1131450591FDF010180F281E02D0280F381E02D2C
S11314601296FC93EE93119742555B4FE417F507E0
S113147029F442815381FD0152834183FC01EE0F23
S1131480FF1FEE0FFF1FEE0FFF1F8E0F9F1FFC01AC
S1131490E555FB4F0180F281E02D86819781909381
S11314A0FD048093FC0420937E040895EE0FFF1F37
S11314B00590F491E02D09940E94670AA59F900D70
S11314C0B49F900DA49F800D911D11240895A29F97
S11314D0B001B39FC001A39F700D811D1124911D04
S11314E0B29F700D811D1124911D0895F894FFCFB2
S11314F0E70348656C6C6F2052544F5321005431FC
S10F15000054320054330049444C4500B0
S9030000FC
