:100000000C9434000C9477030C949E030C94C50359
:100010000C9451000C9451000C9451000C949906CE
:100020000C9451000C9451000C9451000C9451000C
:100030000C9451000C9451000C9451000C945100FC
:100040000C9451000C9451000C9451000C945100EC
:100050000C945100D801E501F201FF010C021902D4
:100060002602330240024D0211241FBECFE5D8E024
:10007000DEBFCDBF10E0A0E6B0E0E6EEF4E102C0E6
:1000800005900D92AC37B107D9F724E0ACE7B0E0AA
:1000900001C01D92AD3FB207E1F70E94BB020C9474
:1000A000710A0C940000CF93C82F88B3826088BB7C
:1000B000C4FF04C08BB380618BBB03C08BB38F7E46
:1000C0008BBBC5FF04C08BB380628BBB03C08BB3FB
:1000D0008F7D8BBBC6FF04C08BB380648BBB03C01A
:1000E0008BB38F7B8BBBCC2324F48BB380688BBB0F
:1000F00003C08BB38F778BBB88B3886088BB61E00C
:1001000070E080E090E00E94EE0288B3877F88BBB9
:1001100061E070E080E090E00E94EE02C0FF04C069
:100120008BB380618BBB03C08BB38F7E8BBBC1FF56
:1001300004C08BB380628BBB03C08BB38F7D8BBB42
:10014000C2FF04C08BB380648BBB03C08BB38F7BB7
:100150008BBBC3FF04C08BB380688BBB03C08BB366
:100160008F778BBB88B3886088BB61E070E080E0EC
:1001700090E00E94EE0288B3877F88BB61E070E068
:1001800080E090E00E94EE02CF910895CF93C82FB7
:1001900088B38D7F88BBC4FF04C08BB380618BBBE9
:1001A00003C08BB38F7E8BBBC5FF04C08BB3806253
:1001B0008BBB03C08BB38F7D8BBBC6FF04C08BB3DF
:1001C00080648BBB03C08BB38F7B8BBBCC2324F4AD
:1001D0008BB380688BBB03C08BB38F778BBB88B32B
:1001E000886088BB61E070E080E090E00E94EE02F1
:1001F00088B3877F88BB61E070E080E090E00E9478
:10020000EE02C0FF04C08BB380618BBB03C08BB315
:100210008F7E8BBBC1FF04C08BB380628BBB03C0DE
:100220008BB38F7D8BBBC2FF04C08BB380648BBB51
:1002300003C08BB38F7B8BBBC3FF04C08BB38068C1
:100240008BBB03C08BB38F778BBB88B3886088BBB5
:1002500061E070E080E090E00E94EE0288B3877F6A
:1002600088BB61E070E080E090E00E94EE02CF91F8
:10027000089587B3826087BB87B3886087BB8AB3E2
:1002800080618ABB8AB380628ABB8AB380648ABB7E
:100290008AB380688ABB64E170E080E090E00E94ED
:1002A000EE0282E00E94C60088E20E94C6008CE056
:1002B0000E94C60086E00E94C60081E00E94C6003F
:1002C0006EE170E080E090E00E94EE0208950F93EE
:1002D0001F93CF938C01C0E003C00E945300CF5FF7
:1002E000F801EC0FF11D80818111F7CFCF911F91A3
:1002F0000F91089541E00E94030308958234A1F014
:1003000018F4813431F008958334C9F0843411F144
:1003100008952BB381E090E002C0880F991F6A9581
:10032000E2F782278BBB089528B381E090E002C0FA
:10033000880F991F6A95E2F7822788BB089525B335
:1003400081E090E002C0880F991F6A95E2F782274A
:1003500085BB089522B381E090E002C0880F991F09
:100360006A95E2F7822782BB08958CEF84BB80EF09
:1003700085BB0895E82F85B3886085BB85B384600D
:1003800085BB613019F0623029F007C085B3877FE3
:1003900085BB03C085B38B7F85BB8E2F90E08A30F1
:1003A000910508F086C0FC01E65DFF4F0C94510AF0
:1003B00085B38F7785BB85B38F7B85BB85B38F7DF9
:1003C00085BB85B38F7E85BB74C085B38F7785BBB6
:1003D00085B38F7B85BB85B38F7D85BB85B38061FE
:1003E00085BB67C085B38F7785BB85B38F7B85BBA6
:1003F00085B3806285BB85B38F7E85BB5AC085B3CC
:100400008F7785BB85B38F7B85BB85B3806285BBCA
:1004100085B3806185BB4DC085B38F7785BB85B3C0
:10042000806485BB85B38F7D85BB85B38F7E85BB9F
:1004300040C085B38F7785BB85B3806485BB85B3AA
:100440008F7D85BB85B3806185BB33C085B38F77D6
:1004500085BB85B3806485BB85B3806285BB85B36E
:100460008F7E85BB26C085B38F7785BB85B38064BF
:1004700085BB85B3806285BB85B3806185BB19C0B0
:1004800085B3806885BB85B38F7B85BB85B38F7D46
:1004900085BB85B38F7E85BB0CC085B3806885BB6B
:1004A00085B38F7B85BB85B38F7D85BB85B380612D
:1004B00085BB61E070E080E090E00E94EE0208956C
:1004C000CF93DF93CDEC8C9FD12D1124D695D6956B
:1004D000D6952D2F220F922F990F990F920F61E031
:1004E000891B0E94BA01DC9FC12D1124C695C695B7
:1004F000C695CC0F8C2F880F880FC80F62E08D2F08
:100500008C1B0E94BA01DF91CF91089565E084E4CD
:100510000E947A0165E084E40E947E0188EE93E007
:100520000E94B609F7CF66E084E40E947A0166E093
:1005300084E40E947E0180E197E20E94B609F7CF31
:100540000E94B50110E0C0E0D0E008C0812F0E94F9
:10055000600281E090E00E94B6092196CD3481E0EE
:10056000D807A4F31F5F143609F410E081E090E08F
:100570000E94B609E8CFEF92FF920F930E943901D3
:1005800082E690E00E946701E12CF12C01E020E07E
:1005900030E044E650E06EE670E086E892E00E94CB
:1005A000060820E030E044E650E061E770E083E9CF
:1005B00092E00E94060802E020E030E044E650E0CD
:1005C00064E770E080EA92E00E9406080E945A0800
:1005D00080E090E00F91FF90EF9008959B01AC01B7
:1005E000A0E4B6E00E94570AAB01BC0180E090E0B5
:1005F000DC0103C00196A11DB11D84179507A60754
:10060000B707C0F3089541113BC08234A9F018F434
:10061000813431F008958334D9F0843429F1089578
:100620002AB381E090E002C0880F991F6A95E2F733
:10063000809582238ABB089527B381E090E002C0B1
:10064000880F991F6A95E2F78095822387BB0895EA
:1006500024B381E090E002C0880F991F6A95E2F709
:100660008095822384BB089521B381E090E002C08D
:10067000880F991F6A95E2F78095822381BB0895C0
:100680008234A1F018F4813431F008958334C9F034
:10069000843411F108952AB381E090E002C0880FFC
:1006A000991F6A95E2F7822B8ABB089527B381E0F0
:1006B00090E002C0880F991F6A95E2F7822B87BBF2
:1006C000089524B381E090E002C0880F991F6A95D5
:1006D000E2F7822B84BB089521B381E090E002C051
:1006E000880F991F6A95E2F7822B81BB08951F92AC
:1006F0000F920FB60F9211242F933F934F935F9356
:100700006F937F938F939F93AF93BF93EF93FF93D9
:10071000E0918000F09181000995FF91EF91BF91E8
:10072000AF919F918F917F916F915F914F913F9189
:100730002F910F900FBE0F901F9018951F920F9240
:100740000FB60F9211242F933F934F935F936F93A4
:100750007F938F939F93AF93BF93EF93FF93E0911A
:100760007E00F0917F000995FF91EF91BF91AF91CD
:100770009F918F917F916F915F914F913F912F91B9
:100780000F900FBE0F901F9018951F920F920FB6EB
:100790000F9211242F933F934F935F936F937F9307
:1007A0008F939F93AF93BF93EF93FF93E0917C0060
:1007B000F0917D000995FF91EF91BF91AF919F91CD
:1007C0008F917F916F915F914F913F912F910F90FA
:1007D0000FBE0F901F901895E7E8F0E08CE890E0CE
:1007E0009183808313821282E3E8F0E087EE93E046
:1007F0009383828311821082ABE8B0E014969C93BD
:100800008E9313971296FC93EE93119708950F937E
:100810001F93CF93DF93EC010E94840880918200A4
:10082000811105C00E94EC0381E080938200209733
:1008300009F02496CE010197863E934008F056C0F9
:10084000E0918700F0918800A7E8B0E002C0DF01E6
:10085000FC01828193818C179D0720F48081918116
:100860000097A9F780E0E338F80709F442C00D913A
:100870001C9111970C5F1F4F808191818D939C93E8
:10088000828193818C1B9D0B8930910510F1AF0102
:100890004C0F5D1FDA0113969C938E931297D383AE
:1008A000C28312962D913C91139767E870E001C0C6
:1008B000BD01EB01A881B98112968D919C9113978E
:1008C00082179307A8F3EA01B983A883DB014D934C
:1008D0005C93228133818091600090916100821B42
:1008E000930B909361008093600005C000E010E0DE
:1008F00002C000E010E00E944409C801DF91CF91DE
:100900001F910F9108950F931F93CF93DF9300973B
:1009100041F1EC018C01045011090E948408F80196
:1009200042815381A7E8B0E001C0DF01ED91FC9165
:1009300011972281338124173507B8F32497F9835F
:10094000E8830D931C938A819B81209160003091F4
:100950006100820F931F90936100809360000E945A
:100960004409DF91CF911F910F910895FC010396E7
:10097000928381832FEF3FEF348323839683858394
:100980009087878310820895FC0111861086089550
:10099000CF93DF939C01FB01DC011196CD91DC919B
:1009A0001297D383C2838C819D81958384838C81AC
:1009B0009D81DC0113967C936E9312977D836C83EB
:1009C00031872087F90180818F5F8083DF91CF910C
:1009D0000895CF93DF93EB01488159814F3F2FEF6B
:1009E000520721F4FC01A781B0850DC0DC011396EC
:1009F00001C0DF011296ED91FC91139720813181A6
:100A000042175307B0F71296ED91FC911397FB83B1
:100A1000EA83D583C483BD83AC831396DC93CE93E2
:100A2000129799878887FC0120812F5F2083DF91AF
:100A3000CF910895CF93DF93FC01A085B185C2814A
:100A4000D381848195819D838C83C481D58182816A
:100A500093819B838A8311968D919C911297E817BD
:100A6000F90731F48481958112969C938E931197A6
:100A7000118610868C9181508C93DF91CF910895CF
:100A80001BBC89EF8ABD8BE08EBD89B7806189BFB1
:100A9000089531E1FC013083319722E220833197C0
:100AA000A3E3A083319760833197708331971082DD
:100AB000319760E8608331971082319762E06083FC
:100AC000319763E06083319764E06083319765E03C
:100AD0006083319766E06083319767E06083319788
:100AE00068E06083319769E06083319760E16083FB
:100AF00031973083319732E13083319733E130835E
:100B0000319734E13083319735E13083319736E1E5
:100B10003083319737E13083319738E13083319733
:100B200039E13083319730E23083319731E23083DD
:100B300031972083319723E2208331974083319787
:100B40005083319726E22083319727E22083319723
:100B500028E22083319729E22083319720E3208304
:100B6000319721E32083869708950E944005A09144
:100B7000FB04B091FC04CD91CDBFDD91DEBFFF91B0
:100B8000EF91DF91CF91BF91AF919F918F917F9125
:100B90006F915F914F913F912F911F910F91FF9016
:100BA000EF90DF90CF90BF90AF909F908F907F900D
:100BB0006F905F904F903F902F901F900F900FBEBF
:100BC0000F90089581E008950F920FB6F8940F9258
:100BD0001F9211242F923F924F925F926F927F92B9
:100BE0008F929F92AF92BF92CF92DF92EF92FF923D
:100BF0000F931F932F933F934F935F936F937F9325
:100C00008F939F93AF93BF93CF93DF93EF93FF9314
:100C1000A091FB04B091FC040DB60D920EB60D929E
:100C20000E94FD09A091FB04B091FC04CD91CDBFC1
:100C3000DD91DEBFFF91EF91DF91CF91BF91AF9139
:100C40009F918F917F916F915F914F913F912F91E4
:100C50001F910F91FF90EF90DF90CF90BF90AF90DA
:100C60009F908F907F906F905F904F903F902F90CC
:100C70001F900F900FBE0F9008950F920FB6F8942B
:100C80000F921F9211242F923F924F925F926F9278
:100C90007F928F929F92AF92BF92CF92DF92EF920C
:100CA000FF920F931F932F933F934F935F936F93F5
:100CB0007F938F939F93AF93BF93CF93DF93EF93E4
:100CC000FF93A091FB04B091FC040DB60D920EB6FB
:100CD0000D920E948A0881110E94FD09A091FB04D7
:100CE000B091FC04CD91CDBFDD91DEBFFF91EF91BE
:100CF000DF91CF91BF91AF919F918F917F916F9134
:100D00005F914F913F912F911F910F91FF90EF9025
:100D1000DF90CF90BF90AF909F908F907F906F901B
:100D20005F904F903F902F901F900F900FBE0F90AD
:100D300008950E943D061895E0919604F09197045D
:100D40008081811107C08FEF9FEF9093770480938C
:100D500076040895E0919604F09197040580F68159
:100D6000E02D0680F781E02D8281938190937704B6
:100D7000809376040895CF93DF93EC018F89988D4B
:100D80000E948304CE010E948304DF91CF910895D5
:100D90006F927F928F929F92AF92BF92CF92DF928B
:100DA000EF920F931F93CF93DF93CDB7DEB74C0134
:100DB000F5018789908D215031093C01620E731E27
:100DC00020E00FC0822F90E0FB01E80FF91F308177
:100DD000D501A80FB91F59963C938081882319F03B
:100DE0002F5F283078F3F50110A2F8E0FE1518F413
:100DF0006894EE24E3F8F501E68AE1A212A2C501A7
:100E000002960E94C404C5010C960E94C404F50118
:100E1000B186A08689E090E08E1991099587848734
:100E2000B38AA28A13A214A215A216A217A2A8011D
:100E3000B401C3010E944905F50191838083C11467
:100E4000D10419F0F601B182A082DF91CF911F91F8
:100E50000F91EF90DF90CF90BF90AF909F908F90C9
:100E60007F906F900895CF93C0E010C08C2F90E0DA
:100E70009C01220F331F220F331F220F331F820FBB
:100E8000931F86559B4F0E94B604CF5FC93070F305
:100E900081EA94E00E94B60488E994E00E94B604D6
:100EA0008BE894E00E94B60482E894E00E94B604C5
:100EB00081EA94E0909397048093960488E994E003
:100EC0009093950480939404CF910895CF93DF93EA
:100ED000EC010FB6F8940F92809180048F5F80939D
:100EE00080048091FB049091FC04892B59F4D093E9
:100EF000FC04C093FB0480918004813099F40E942B
:100F0000330710C080917C0481110CC0E091FB0478
:100F1000F091FC0496898E89891720F0D093FC0407
:100F2000C093FB04809178048F5F809378048E894E
:100F300090917D04981710F480937D0490E09C01BB
:100F4000220F331F220F331F220F331F820F931FD5
:100F5000BE016E5F7F4F86559B4F0E94C8040F9065
:100F60000FBE80917C04882351F0E091FB04F09146
:100F7000FC0496898E89981710F40E94E405DF918D
:100F8000CF9108950F931F93CF93DF93EC010091BE
:100F90007E0410917F048091FB049091FC040296E2
:100FA0000E941A05C00FD11FE091FB04F091FC04D0
:100FB000D383C283C017D10768F46091FB0470919A
:100FC000FC0480919404909195046E5F7F4F0E9481
:100FD000E90417C06091FB047091FC0480919604B1
:100FE000909197046E5F7F4F0E94E9048091760490
:100FF00090917704C817D90720F4D0937704C09351
:101000007604DF91CF911F910F9108952F923F9217
:101010004F925F926F927F928F929F92AF92BF9208
:10102000CF92DF92EF92FF920F931F93CF93DF93B4
:101030003C011B015A012901CA010E9407046C01ED
:10104000892B71F088E290E00E940704EC01892B63
:1010500019F0D88ECF8A06C0C6010E94830402C050
:10106000C0E0D0E0209791F0950140E050E0812C65
:10107000912C5E016701E02E8201B101C3010E9443
:10108000C806CE010E94660781E001C08FEFDF91A4
:10109000CF911F910F91FF90EF90DF90CF90BF9075
:1010A000AF909F908F907F906F905F904F903F9008
:1010B0002F900895EF92FF920F930F2EF4E7EF2EEB
:1010C000F4E0FF2EF02D00E020E030E040E550E0BD
:1010D00067E770E08AEF99E00E940608813081F4AA
:1010E000F8948FEF9FEF909377048093760481E0DC
:1010F00080937C0410927F0410927E040E94B505B8
:101100000F91FF90EF900895809173048F5F80930B
:1011100073040895DF92EF92FF920F931F93CF9382
:10112000DF9380917304811197C0E0907E04F0906A
:101130007F048FEFE81AF80AF0927F04E0927E04B1
:10114000E114F104B9F480919604909197042091F0
:1011500094043091950430939704209396049093CF
:10116000950480939404809179048F5F809379042F
:101170000E949C068091760490917704E816F90607
:1011800028F4D12C53C0DD24D39401C0D12CE0919C
:101190009604F09197048081811107C08FEF9FEF33
:1011A000909377048093760441C0E0919604F09187
:1011B00097040580F681E02DC681D7818A819B81C5
:1011C000E816F90628F490937704809376042EC0ED
:1011D0008E010E5F1F4FC8010E941A058C899D89E0
:1011E000892B21F0CE010C960E941A058E899091D0
:1011F0007D04981710F480937D0490E09C01220FE9
:10120000331F220F331F220F331F820F931FB8018A
:1012100086559B4F0E94C8049E89E091FB04F09183
:10122000FC048689981708F0AECFB1CFE091FB049B
:10123000F091FC04868990E0FC01EE0FFF1FEE0F99
:10124000FF1FEE0FFF1F8E0F9F1FFC01E655FB4F88
:101250008081823040F409C080917B048F5F80934D
:101260007B04D12C02C0DD24D39480917A0488239E
:1012700011F0DD24D3948D2DDF91CF911F910F912B
:10128000FF90EF90DF9008950F931F93CF93DF931C
:101290000FB6F8940F928091730481508093730479
:1012A00080917304811158C080918004811133C0F2
:1012B00056C0E0919004F0919104C681D781CE018F
:1012C0000C960E941A058E010E5F1F4FC8010E94E6
:1012D0001A058E8990917D04981710F480937D04EF
:1012E00090E09C01220F331F220F331F220F331F68
:1012F000820F931FB80186559B4F0E94C8049E8998
:10130000E091FB04F091FC048689981730F081E0AD
:1013100080937A0402C0C0E0D0E080918B048111F8
:10132000C8CFCD2B11F00E949C06C0917B04CC232A
:1013300059F00E948A08882319F081E080937A048A
:10134000C150B9F710927B0480917A04882331F060
:101350000E94E40581E003C080E001C080E00F90BE
:101360000FBEDF91CF911F910F910895CF93DF931F
:10137000EC01892B49F00E94840860E0CE010E94B4
:10138000C2070E94440901C080E0811102C00E948E
:10139000E405DF91CF910895CF93DF9324C00E949D
:1013A0008408C09182040E944409CC23E1F00FB666
:1013B000F8940F92E0918704F0918804C681D78158
:1013C000CE0102960E941A0580918004815080937C
:1013D0008004809181048150809381040F900FBE1E
:1013E000CE010E94BB06809181048111D8CFDF918C
:1013F000CF9108950E94CC09FDCF8091730488237A
:1014000021F081E080937A04089510927A0420916B
:101410007D0401C02150822F90E0FC01EE0FFF1FE0
:10142000EE0FFF1FEE0FFF1FE80FF91FE655FB4FF2
:101430003081332379F3AC01440F551F440F551FFE
:10144000440F551F480F591FDF010180F281E02D25
:101450000280F381E02D1296FC93EE931197435591
:101460005B4FE417F50729F442815381FD01528354
:101470004183FC01EE0FFF1FEE0FFF1FEE0FFF1F5A
:101480008E0F9F1FFC01E655FB4F0180F281E02D7E
:10149000868197819093FC048093FB0420937D04C4
:1014A0000895EE0FFF1F0590F491E02D09940E941E
:1014B000620AA59F900DB49F900DA49F800D911D71
:1014C00011240895A29FB001B39FC001A39F700D86
:1014D000811D1124911DB29F700D811D1124911D3C
:0614E0000895F894FFCF0F
:1014E600E70348656C6C6F2052544F53210054310A
:0C14F6000054320054330049444C4500BF
:00000001FF
