:100000000C942A000C9412030C9439030C94600392
:100010000C9447000C9447000C9447000C94470044
:100020000C9447000C9447000C9473040C944C04FB
:100030000C9447000C9447000C9447000C94470024
:100040000C9447000C9447000C9447000C94470014
:100050000C94470011241FBECFE5D8E0DEBFCDBF12
:1000600010E0A0E6B0E0E8EEFCE002C005900D92E2
:10007000AE36B107D9F720E0AEE6B0E001C01D9280
:10008000A637B207E1F70E9414020C9472060C9492
:100090000000CF93DF93C82FD62F40E00E946D025F
:1000A000C234A1F018F4C13431F030C0C334C9F007
:1000B000C43411F12BC02BB381E090E002C0880F53
:1000C000991FDA95E2F7822B8BBB20C028B381E021
:1000D00090E002C0880F991FDA95E2F7822B88BB67
:1000E00015C025B381E090E002C0880F991FDA9512
:1000F000E2F7822B85BB0AC022B381E090E002C008
:10010000880F991FDA95E2F7822B82BBDF91CF919E
:1001100008950E94E10208959BB398609BBB84FF01
:1001200004C098B3916098BB03C098B39E7F98BBFE
:1001300085FF04C098B3926098BB03C098B39D7FBD
:1001400098BB86FF04C098B3946098BB03C098B373
:100150009B7F98BB882324F498B3906198BB03C01D
:1001600098B39F7E98BB9BB394609BBBEFE9FFE085
:100170003197F1F700C000009BB39B7F9BBBEFE979
:10018000FFE03197F1F700C0000080FF04C098B392
:10019000916098BB03C098B39E7F98BB81FF04C059
:1001A00098B3926098BB03C098B39D7F98BB82FFC1
:1001B00004C098B3946098BB03C098B39B7F98BB6E
:1001C00083FF04C088B3806188BB03C088B38F7E7F
:1001D00088BB8BB384608BBB8FE99FE00197F1F7FD
:1001E00000C000008BB38B7F8BBBEFE9FFE0319742
:1001F000F1F700C0000008959BB3977F9BBB84FF7D
:1002000004C098B3916098BB03C098B39E7F98BB1D
:1002100085FF04C098B3926098BB03C098B39D7FDC
:1002200098BB86FF04C098B3946098BB03C098B392
:100230009B7F98BB882324F498B3906198BB03C03C
:1002400098B39F7E98BB9BB394609BBBEFE9FFE0A4
:100250003197F1F700C000009BB39B7F9BBBEFE998
:10026000FFE03197F1F700C0000080FF04C098B3B1
:10027000916098BB03C098B39E7F98BB81FF04C078
:1002800098B3926098BB03C098B39D7F98BB82FFE0
:1002900004C098B3946098BB03C098B39B7F98BB8D
:1002A00083FF04C088B3806188BB03C088B38F7E9E
:1002B00088BB8BB384608BBB8FE99FE00197F1F71C
:1002C00000C000008BB38B7F8BBBEFE9FFE0319761
:1002D000F1F700C0000008958AB388608ABB8AB332
:1002E00084608ABB87B3816087BB87B3826087BB2A
:1002F00087B3846087BB87B3806187BB2FEF89EFAB
:1003000090E0215080409040E1F700C0000082E082
:100310000E94FC0088E20E94FC008CE00E94FC002D
:1003200086E00E94FC0081E00E94FC002FEF86E73F
:1003300091E0215080409040E1F700C00000089516
:100340000F931F93CF93DF93CDB7DEB72A970FB6E6
:10035000F894DEBF0FBECDBF99234CF490958095E5
:10036000709561957F4F8F4F9F4F01E001C000E076
:100370006115710581059105D1F480E30E948C001F
:1003800031C02AE030E040E050E00E945306E1E056
:10039000F0E0EC0FFD1FE10FF11D17FDFA95605D18
:1003A0006083622F732F842F952F1F5F01C010E091
:1003B000611571058105910521F71150013081F416
:1003C0008DE20E948C000CC0E1E0F0E0EC0FFD1F1C
:1003D000E10FF11D17FDFA9580810E948C001150EC
:1003E000112394F72A960FB6F894DEBF0FBECDBF47
:1003F000DF91CF911F910F9108950F931F93CF938A
:100400008C01C0E003C00E948C00CF5FF801EC0FAC
:10041000F11D80818111F7CFCF911F910F91089528
:1004200041E00E946D0208950E946C0167E084E43F
:100430000E94490065E081E40E9410020E948B0343
:1004400041E063E080E00E94190421E040E061E0C7
:1004500081E00E948F030E94870380E80E94FC00D5
:1004600080E690E00E94FD0186E80E94FC0060E0CA
:1004700070E0CB010E94A00189E80E94FC0087E6A1
:1004800090E00E94FD01C0E067E084E40E948900E2
:100490008111FACFC65FCE3641F486E80E94FC0097
:1004A00089E690E00E94FD01C0E041E063E08C2F0E
:1004B0000E94190486E80E94FC006C2F70E080E026
:1004C00090E00E94A0012FEF85EA9EE0215080403D
:1004D0009040E1F700C00000D7CF41113BC082340B
:1004E000A9F018F4813431F008958334D9F08434BC
:1004F00029F108952AB381E090E002C0880F991F86
:100500006A95E2F7809582238ABB089527B381E03C
:1005100090E002C0880F991F6A95E2F780958223C8
:1005200087BB089524B381E090E002C0880F991F33
:100530006A95E2F78095822384BB089521B381E018
:1005400090E002C0880F991F6A95E2F78095822398
:1005500081BB08958234A1F018F4813431F00895FC
:100560008334C9F0843411F108952AB381E090E016
:1005700002C0880F991F6A95E2F7822B8ABB089503
:1005800027B381E090E002C0880F991F6A95E2F7D7
:10059000822B87BB089524B381E090E002C0880FCE
:1005A000991F6A95E2F7822B84BB089521B381E0FD
:1005B00090E002C0880F991F6A95E2F7822B81BBF9
:1005C0000895823491F018F4813431F029C08334D5
:1005D000A9F08434E1F024C089B390E002C095957D
:1005E00087956A95E2F78170089586B390E002C01E
:1005F000959587956A95E2F78170089583B390E0A9
:1006000002C0959587956A95E2F78170089580B349
:1006100090E002C0959587956A95E2F781700895FC
:1006200080E008951F920F920FB60F9211242F931E
:100630003F934F935F936F937F938F939F93AF936A
:10064000BF93EF93FF93E0917200F09173000995CF
:10065000FF91EF91BF91AF919F918F917F916F919A
:100660005F914F913F912F910F900FBE0F901F9070
:1006700018951F920F920FB60F9211242F933F934C
:100680004F935F936F937F938F939F93AF93BF939A
:10069000EF93FF93E0917000F09171000995FF9145
:1006A000EF91BF91AF919F918F917F916F915F91EA
:1006B0004F913F912F910F900FBE0F901F90189563
:1006C0001F920F920FB60F9211242F933F934F93C7
:1006D0005F936F937F938F939F93AF93BF93EF93AA
:1006E000FF93E0916E00F0916F000995FF91EF91FB
:1006F000BF91AF919F918F917F916F915F914F913A
:100700003F912F910F900FBE0F901F9018958FB7AC
:1007100080688FBF08958FB78F778FBF089512BEFF
:10072000813069F028F0823089F08330B1F01BC04D
:1007300093B7977F93BF93B79F7B93BF14C093B733
:10074000977F93BF93B7906493BF0DC093B79860A2
:1007500093BF93B79F7B93BF06C093B7986093BF37
:1007600093B7906493BF833011F08130A9F497B3AD
:10077000986097BB222319F0213041F00DC093B748
:10078000906293BF93B79F7E93BF06C093B790626A
:1007900093BF93B7906193BF6230F9F028F466235A
:1007A00041F0613081F036C0633009F1643049F1C5
:1007B00031C093B79B7F93BF93B79D7F93BF93B790
:1007C000916093BF27C093B79B7F93BF93B792600D
:1007D00093BF93B79E7F93BF1DC093B79B7F93BF7B
:1007E00093B7926093BF93B7916093BF13C093B7D1
:1007F000946093BF93B79D7F93BF93B79E7F93BF42
:1008000009C093B7946093BF93B79D7F93BF93B78D
:10081000916093BF413061F4882319F0823029F050
:10082000089589B7816089BF089589B7826089BFBB
:100830000895853608F084E6633091F4411110C0C4
:10084000682F70E080E090E00E94380523E333E3F6
:1008500043E250E40E94C4050E9407056CBF08955E
:100860006330C9F44130B9F4682F70E080E090E063
:100870000E94380523E333E343E250E40E94C405B9
:100880009B01AC0160E070E08FE793E40E949A0462
:100890000E9407056CBF08951F920F920FB60F922A
:1008A00011242F933F934F935F936F937F938F9375
:1008B0009F93AF93BF93EF93FF93E0917400F091F8
:1008C00075000995FF91EF91BF91AF919F918F9125
:1008D0007F916F915F914F913F912F910F900FBE3C
:1008E0000F901F9018951F920F920FB60F92112420
:1008F0002F933F934F935F936F937F938F939F9328
:10090000AF93BF93EF93FF93E0917400F091750064
:100910000995FF91EF91BF91AF919F918F917F9139
:100920006F915F914F913F912F910F900FBE0F905C
:100930001F9018955058BB27AA270E94B2040C9408
:100940008A050E947C0538F00E94830520F039F466
:100950009F3F19F426F40C9479050EF4E095E7FB1B
:100960000C947305E92F0E949B0558F3BA17620790
:1009700073078407950720F079F4A6F50C94BD055C
:100980000EF4E0950B2EBA2FA02D0B01B9019001AA
:100990000C01CA01A0011124FF27591B99F0593FEE
:1009A00050F4503E68F11A16F040A22F232F342F36
:1009B0004427585FF3CF469537952795A795F04084
:1009C0005395C9F77EF41F16BA0B620B730B840B99
:1009D000BAF09150A1F0FF0FBB1F661F771F881F51
:1009E000C2F70EC0BA0F621F731F841F48F48795A9
:1009F00077956795B795F7959E3F08F0B0CF93959B
:100A0000880F08F09927EE0F9795879508950E9413
:100A1000A30588F09F5798F0B92F9927B751B0F0E8
:100A2000E1F0660F771F881F991F1AF0BA95C9F772
:100A300014C0B13091F00E94BD05B1E008950C944E
:100A4000BD05672F782F8827B85F39F0B93FCCF301
:100A5000869577956795B395D9F73EF490958095EF
:100A6000709561957F4F8F4F9F4F0895E89409C00F
:100A700097FB3EF490958095709561957F4F8F4FD1
:100A80009F4F9923A9F0F92F96E9BB279395F695E7
:100A9000879577956795B795F111F8CFFAF4BB0F65
:100AA00011F460FF1BC06F5F7F4F8F4F9F4F16C0C9
:100AB000882311F096E911C0772321F09EE8872F53
:100AC000762F05C0662371F096E8862F70E060E00F
:100AD0002AF09A95660F771F881FDAF7880F969588
:100AE000879597F9089597F99F6780E870E060E02F
:100AF00008959FEF80EC089500240A9416161706B7
:100B000018060906089500240A94121613061406FE
:100B100005060895092E0394000C11F4882352F061
:100B2000BB0F40F4BF2B11F460FF04C06F5F7F4F19
:100B30008F4F9F4F089557FD9058440F551F59F000
:100B40005F3F71F04795880F97FB991F61F09F3FBA
:100B500079F087950895121613061406551FF2CFE3
:100B60004695F1DF08C0161617061806991FF1CF33
:100B700086957105610508940895E894BB2766275A
:100B80007727CB0197F908950E94D7050C948A0521
:100B90000E947C0538F00E94830520F0952311F017
:100BA0000C9473050C94790511240C94BE050E94D5
:100BB0009B0570F3959FC1F3950F50E0551F629F01
:100BC000F001729FBB27F00DB11D639FAA27F00DA6
:100BD000B11DAA1F649F6627B00DA11D661F829FCD
:100BE0002227B00DA11D621F739FB00DA11D621FB2
:100BF000839FA00D611D221F749F3327A00D611DCF
:100C0000231F849F600D211D822F762F6A2F1124B0
:100C10009F5750409AF0F1F088234AF0EE0FFF1FE3
:100C2000BB1F661F771F881F91505040A9F79E3F3A
:100C3000510580F00C9473050C94BE055F3FE4F3FE
:100C4000983ED4F3869577956795B795F795E79590
:100C50009F5FC1F7FE2B880F911D9695879597F999
:100C60000895A1E21A2EAA1BBB1BFD010DC0AA1FED
:100C7000BB1FEE1FFF1FA217B307E407F50720F005
:100C8000A21BB30BE40BF50B661F771F881F991F80
:100C90001A9469F760957095809590959B01AC01C9
:100CA000BD01CF010895052E97FB1EF400940E940C
:100CB0006A0657FD07D00E94310607FC03D04EF4A8
:100CC0000C946A0650954095309521953F4F4F4FB3
:100CD0005F4F089590958095709561957F4F8F4FE8
:080CE0009F4F0895F894FFCF27
:0E0CE800447574793D20002500202020000076
:00000001FF
