:100000000C942A000C943F000C943F000C943F0089
:100010000C943F000C943F000C943F000C943F0064
:100020000C943F000C943F000C943F000C943F0054
:100030000C943F000C943F000C943F000C943F0044
:100040000C943F000C943F000C943F000C943F0034
:100050000C943F0011241FBECFE5D8E0DEBFCDBF1A
:1000600010E0A0E6B0E0EEEBF4E002C005900D92E7
:10007000AA36B107D9F70E9416010C945D020C94C0
:100080000000CF93DF93C82FD62F40E00E94440199
:10009000C234A1F018F4C13431F030C0C334C9F017
:1000A000C43411F12BC02BB381E090E002C0880F63
:1000B000991FDA95E2F7822B8BBB20C028B381E031
:1000C00090E002C0880F991FDA95E2F7822B88BB77
:1000D00015C025B381E090E002C0880F991FDA9522
:1000E000E2F7822B85BB0AC022B381E090E002C018
:1000F000880F991FDA95E2F7822B82BBDF91CF91AF
:1001000008950E942C02089541E00E944401089540
:100110008234A1F018F4813431F008958334C9F0A9
:10012000843411F108952BB381E090E002C0880F70
:10013000991F6A95E2F782278BBB089528B381E067
:1001400090E002C0880F991F6A95E2F7822788BB6A
:10015000089525B381E090E002C0880F991F6A9549
:10016000E2F7822785BB089522B381E090E002C0C8
:10017000880F991F6A95E2F7822782BB089587B39B
:10018000876187BB87E188BB8AB388608ABB8AB3F3
:1001900084608ABB87B3806287BB87B3806487BB78
:1001A00080E009C0E82FF0E0E05AFF4F20819FE790
:1001B000922790838F5F8A30A8F308959BB3977F2F
:1001C0009BBB9BB39B7F9BBB98B39F7D98BB98B316
:1001D0009F7B98BB623069F018F4613031F014C035
:1001E000633059F0643069F00FC09BB398609BBBDB
:1001F0000BC09BB394609BBB07C098B3906298BB45
:1002000003C098B3906498BB92B3907892BB92B3BA
:10021000E82FF0E0E05AFF4F8081892B82BB8FE905
:100220009FE00197F1F700C00000089566E081E4C7
:100230000E94840067E084E40E94410041E065E0A0
:1002400083E40E94440140E065E083E40E94B80139
:100250000E94BF0061E070E082E090E00E94DE005A
:1002600067E084E40E9481008111FACF66E081E4B6
:100270000E9488002FEF85EA9EE021508040904048
:10028000E1F700C00000ECCF41113BC08234A9F07F
:1002900018F4813431F008958334D9F0843429F18D
:1002A00008952AB381E090E002C0880F991F6A95F3
:1002B000E2F7809582238ABB089527B381E090E01E
:1002C00002C0880F991F6A95E2F78095822387BB49
:1002D000089524B381E090E002C0880F991F6A95C9
:1002E000E2F78095822384BB089521B381E090E0FA
:1002F00002C0880F991F6A95E2F78095822381BB1F
:1003000008958234A1F018F4813431F008958334D3
:10031000C9F0843411F108952AB381E090E002C05D
:10032000880F991F6A95E2F7822B8ABB089527B33D
:1003300081E090E002C0880F991F6A95E2F7822B56
:1003400087BB089524B381E090E002C0880F991F15
:100350006A95E2F7822B84BB089521B381E090E097
:1003600002C0880F991F6A95E2F7822B81BB08951E
:1003700041113BC08234A9F018F4813431F0089562
:100380008334D9F0843429F108952BB381E090E0CF
:1003900002C0880F991F6A95E2F7809582238BBB74
:1003A000089528B381E090E002C0880F991F6A95F4
:1003B000E2F78095822388BB089525B381E090E021
:1003C00002C0880F991F6A95E2F78095822385BB4A
:1003D000089522B381E090E002C0880F991F6A95CA
:1003E000E2F78095822382BB08958234A1F018F44D
:1003F000813431F008958334C9F0843411F10895C3
:100400002BB381E090E002C0880F991F6A95E2F754
:10041000822B8BBB089528B381E090E002C0880F47
:10042000991F6A95E2F7822B88BB089525B381E076
:1004300090E002C0880F991F6A95E2F7822B85BB76
:10044000089522B381E090E002C0880F991F6A9559
:10045000E2F7822B82BB0895823491F018F4813444
:1004600031F029C08334A9F08434E1F024C089B389
:1004700090E002C0959587956A95E2F7817008959E
:1004800086B390E002C0959587956A95E2F78170F2
:10049000089583B390E002C0959587956A95E2F739
:1004A0008170089580B390E002C0959587956A9514
:0E04B000E2F78170089580E00895F894FFCF80
:0A04BE003F065B4F666D7D077F6F00
:00000001FF
