:100000000C942A000C9474010C949B010C94C20172
:100010000C9447000C9447000C9447000C94470044
:100020000C9447000C9447000C9410020C94E901C6
:100030000C9447000C9447000C9447000C94470024
:100040000C9447000C9447000C9447000C94470014
:100050000C94470011241FBECFE5D8E0DEBFCDBF12
:1000600010E0A0E6B0E0ECEAF4E002C005900D92EA
:10007000A036B107D9F720E0A0E6B0E001C01D929C
:10008000A836B207E1F70E945D010C9454020C946B
:1000900000009BB398609BBB84FF04C098B3916041
:1000A00098BB03C098B39E7F98BB85FF04C098B3EC
:1000B000926098BB03C098B39D7F98BB86FF04C035
:1000C00098B3946098BB03C098B39B7F98BB882378
:1000D00024F498B3906198BB03C098B39F7E98BBFB
:1000E0009BB394609BBBEFE9FFE03197F1F700C051
:1000F00000009BB39B7F9BBBEFE9FFE03197F1F7DB
:1001000000C0000080FF04C098B3916098BB03C09A
:1001100098B39E7F98BB81FF04C098B3926098BB50
:1001200003C098B39D7F98BB82FF04C098B39460CE
:1001300098BB03C098B39B7F98BB83FF04C088B370
:10014000806188BB03C088B38F7E88BB8BB384601B
:100150008BBB8FE99FE00197F1F700C000008BB3E4
:100160008B7F8BBBEFE9FFE03197F1F700C0000018
:1001700008959BB3977F9BBB84FF04C098B39160A5
:1001800098BB03C098B39E7F98BB85FF04C098B30B
:10019000926098BB03C098B39D7F98BB86FF04C054
:1001A00098B3946098BB03C098B39B7F98BB882397
:1001B00024F498B3906198BB03C098B39F7E98BB1A
:1001C0009BB394609BBBEFE9FFE03197F1F700C070
:1001D00000009BB39B7F9BBBEFE9FFE03197F1F7FA
:1001E00000C0000080FF04C098B3916098BB03C0BA
:1001F00098B39E7F98BB81FF04C098B3926098BB70
:1002000003C098B39D7F98BB82FF04C098B39460ED
:1002100098BB03C098B39B7F98BB83FF04C088B38F
:10022000806188BB03C088B38F7E88BB8BB384603A
:100230008BBB8FE99FE00197F1F700C000008BB303
:100240008B7F8BBBEFE9FFE03197F1F700C0000037
:1002500008958AB388608ABB8AB384608ABB87B3F7
:10026000816087BB87B3826087BB87B3846087BBAD
:1002700087B3806187BB2FEF89EF90E021508040EA
:100280009040E1F700C0000082E00E94B90088E2DF
:100290000E94B9008CE00E94B90086E00E94B9007B
:1002A00081E00E94B9002FEF86E791E02150804065
:1002B0009040E1F700C000000895CF93DF931F92B4
:1002C000CDB7DEB70E9437020E942901CE01019608
:1002D0000E944E0289810E94490089818F37B1F7BF
:1002E00081E00E94B900F2CF1F920F920FB60F92D9
:1002F00011242F933F934F935F936F937F938F932B
:100300009F93AF93BF93EF93FF93E0916400F091BD
:1003100065000995FF91EF91BF91AF919F918F91EA
:100320007F916F915F914F913F912F910F900FBEF1
:100330000F901F9018951F920F920FB60F921124D5
:100340002F933F934F935F936F937F938F939F93DD
:10035000AF93BF93EF93FF93E0916200F09163003E
:100360000995FF91EF91BF91AF919F918F917F91EF
:100370006F915F914F913F912F910F900FBE0F9012
:100380001F9018951F920F920FB60F9211242F9362
:100390003F934F935F936F937F938F939F93AF930D
:1003A000BF93EF93FF93E0916000F0916100099596
:1003B000FF91EF91BF91AF919F918F917F916F913D
:1003C0005F914F913F912F910F900FBE0F901F9013
:1003D00018951F920F920FB60F9211242F933F93EF
:1003E0004F935F936F937F938F939F93AF93BF933D
:1003F000EF93FF93E0916600F09167000995FF91FC
:10040000EF91BF91AF919F918F917F916F915F918C
:100410004F913F912F910F900FBE0F901F90189505
:100420001F920F920FB60F9211242F933F934F9369
:100430005F936F937F938F939F93AF93BF93EF934C
:10044000FF93E0916600F09167000995FF91EF91AD
:10045000BF91AF919F918F917F916F915F914F91DC
:100460003F912F910F900FBE0F901F90189587E628
:1004700089B98AB180618AB98AB188608AB981B341
:10048000826081BB81B38E7F81BB8BB18D7F8BB945
:100490008AB184608AB980E880BD08955F9BFECFF1
:0C04A0002CB1FC0120830895F894FFCFDC
:00000001FF
