S01300004170706C69636174696F6E2E737265639D
S11300000C9434000C943E000C943E000C943E007E
S11300100C943E000C943E000C943E000C943E0064
S11300200C943E000C943E000C943E000C943E0054
S11300300C943E000C943E000C943E000C943E0044
S11300400C943E000C943E000C943E000C943E0034
S11300500C943E007C0089009600A300B000BD0013
S1130060CA00D700E400F10011241FBECFE5D8E098
S1130070DEBFCDBF0E9404010C9425010C94000046
S11300808FEF87BB88BB8AB384608ABB8AB38860DE
S11300908ABB0895E82F8BB388608BBB8BB38460D5
S11300A08BBB88B3806288BB88B3806488BB6230B2
S11300B069F018F4613031F014C0633059F06430E1
S11300C069F00FC08BB3877F8BBB0BC08BB38B7F67
S11300D08BBB07C088B38F7D88BB03C088B38F7B7D
S11300E088BB8E2F90E08A30910508F086C0FC0111
S11300F0E65DFF4F0C941F0188B38F7E88BB88B3E5
S11301008B7F88BB88B38D7F88BB88B38E7F88BB89
S113011074C088B38F7E88BB88B38B7F88BB88B359
S11301208D7F88BB88B3816088BB67C088B38F7EAE
S113013088BB88B38B7F88BB88B3826088BB88B355
S11301408E7F88BB5AC088B38F7E88BB88B38B7F71
S113015088BB88B3826088BB88B3816088BB4DC08C
S113016088B38F7E88BB88B3846088BB88B38D7F57
S113017088BB88B38E7F88BB40C088B38F7E88BB22
S113018088B3846088BB88B38D7F88BB88B3816063
S113019088BB33C088B38F7E88BB88B3846088BB38
S11301A088B3826088BB88B38E7F88BB26C088B33F
S11301B08F7E88BB88B3846088BB88B3826088BB29
S11301C088B3816088BB19C088B3806188BB88B359
S11301D08B7F88BB88B38D7F88BB88B38E7F88BBB9
S11301E00CC088B3806188BB88B38B7F88BB88B31D
S11301F08D7F88BB88B3816088BB8FE99FE00197BE
S1130200F1F700C0000008950E94400061E070E032
S113021080E090E00E944A0062E070E086E090E0B6
S11302200E944A0063E070E082E090E00E944A008D
S113023064E070E081E090E00E944A00E7CFEE0FB6
S1110240FF1F0590F491E02D0994F894FFCF70
S9030000FC
