:100000000C942A000C9442010C9469010C94900108
:100010000C9447000C9447000C9447000C94470044
:100020000C9447000C9447000C9447000C94470034
:100030000C9447000C9447000C9447000C94470024
:100040000C9447000C9447000C9447000C94470014
:100050000C94470011241FBECFE5D8E0DEBFCDBF12
:1000600010E0A0E6B0E0E2E7F3E002C005900D92F8
:10007000A036B107D9F720E0A0E6B0E001C01D929C
:10008000A636B207E1F70E9451000C94B7010C9418
:10009000000041E00E945A00089541E00E94CE0015
:1000A000089565E084E40E94490065E084E40E94CC
:1000B0004D00FFCF41113BC08234A9F018F48134C8
:1000C00031F008958334D9F0843429F108952AB3A6
:1000D00081E090E002C0880F991F6A95E2F7809551
:1000E00082238ABB089527B381E090E002C0880F85
:1000F000991F6A95E2F78095822387BB089524B300
:1001000081E090E002C0880F991F6A95E2F7809520
:10011000822384BB089521B381E090E002C0880F60
:10012000991F6A95E2F78095822381BB08958234F6
:10013000A1F018F4813431F008958334C9F0843487
:1001400011F108952AB381E090E002C0880F991F51
:100150006A95E2F7822B8ABB089527B381E090E08D
:1001600002C0880F991F6A95E2F7822B87BB08951A
:1001700024B381E090E002C0880F991F6A95E2F7EE
:10018000822B84BB089521B381E090E002C0880FE8
:10019000991F6A95E2F7822B81BB089541113BC0FC
:1001A0008234A9F018F4813431F008958334D9F001
:1001B000843429F108952BB381E090E002C0880FC8
:1001C000991F6A95E2F7809582238BBB089528B327
:1001D00081E090E002C0880F991F6A95E2F7809550
:1001E000822388BB089525B381E090E002C0880F88
:1001F000991F6A95E2F78095822385BB089522B303
:1002000081E090E002C0880F991F6A95E2F780951F
:10021000822382BB08958234A1F018F4813431F036
:1002200008958334C9F0843411F108952BB381E02B
:1002300090E002C0880F991F6A95E2F7822B8BBB72
:10024000089528B381E090E002C0880F991F6A9555
:10025000E2F7822B88BB089525B381E090E002C0CD
:10026000880F991F6A95E2F7822B85BB089522B308
:1002700081E090E002C0880F991F6A95E2F7822B17
:1002800082BB08951F920F920FB60F9211242F93E5
:100290003F934F935F936F937F938F939F93AF930E
:1002A000BF93EF93FF93E0916400F091650009958F
:1002B000FF91EF91BF91AF919F918F917F916F913E
:1002C0005F914F913F912F910F900FBE0F901F9014
:1002D00018951F920F920FB60F9211242F933F93F0
:1002E0004F935F936F937F938F939F93AF93BF933E
:1002F000EF93FF93E0916200F09163000995FF9105
:10030000EF91BF91AF919F918F917F916F915F918D
:100310004F913F912F910F900FBE0F901F90189506
:100320001F920F920FB60F9211242F933F934F936A
:100330005F936F937F938F939F93AF93BF93EF934D
:10034000FF93E0916000F09161000995FF91EF91BA
:10035000BF91AF919F918F917F916F915F914F91DD
:100360003F912F910F900FBE0F901F901895F8940A
:02037000FFCFBD
:00000001FF
