:100000000C942A000C9434000C9434000C943400AA
:100010000C9434000C9434000C9434000C94340090
:100020000C9434000C9434000C9434000C94340080
:100030000C9434000C9434000C9434000C94340070
:100040000C9434000C9434000C9434000C94340060
:100050000C94340011241FBECFE5D8E0DEBFCDBF25
:100060000E9471000C94F7000C94000041E00E9483
:10007000830008958234A1F018F4813431F008959A
:100080008334C9F0843411F108952BB381E090E0FA
:1000900002C0880F991F6A95E2F782278BBB0895EB
:1000A00028B381E090E002C0880F991F6A95E2F7BB
:1000B000822788BB089525B381E090E002C0880FB5
:1000C000991F6A95E2F7822785BB089522B381E0E4
:1000D00090E002C0880F991F6A95E2F7822782BBE1
:1000E000089567E081E40E94360067E081E40E94A1
:1000F0003A002FEF83ED90E3215080409040E1F7EC
:1001000000C00000F2CF41113BC08234A9F018F4C6
:10011000813431F008958334D9F0843429F108957D
:100120002AB381E090E002C0880F991F6A95E2F738
:10013000809582238ABB089527B381E090E002C0B6
:10014000880F991F6A95E2F78095822387BB0895EF
:1001500024B381E090E002C0880F991F6A95E2F70E
:100160008095822384BB089521B381E090E002C092
:10017000880F991F6A95E2F78095822381BB0895C5
:100180008234A1F018F4813431F008958334C9F039
:10019000843411F108952AB381E090E002C0880F01
:1001A000991F6A95E2F7822B8ABB089527B381E0F5
:1001B00090E002C0880F991F6A95E2F7822B87BBF7
:1001C000089524B381E090E002C0880F991F6A95DA
:1001D000E2F7822B84BB089521B381E090E002C056
:1001E000880F991F6A95E2F7822B81BB0895F894D6
:0201F000FFCF3F
:00000001FF
