:100000000C942A000C9418020C943F020C94660283
:100010000C9447000C9447000C9447000C94470044
:100020000C9447000C9447000C9447000C94470034
:100030000C9447000C9447000C9447000C94470024
:100040000C9447000C9447000C9447000C94470014
:100050000C94470011241FBECFE5D8E0DEBFCDBF12
:1000600010E0A0E6B0E0E4E5F8E002C005900D92F3
:10007000A036B107D9F720E0A0E6B0E001C01D929C
:10008000A636B207E1F70E94EA010C9428040C940A
:1000900000009BB398609BBB84FF04C098B3916041
:1000A00098BB03C098B39E7F98BB85FF04C098B3EC
:1000B000926098BB03C098B39D7F98BB86FF04C035
:1000C00098B3946098BB03C098B39B7F98BB882378
:1000D00024F498B3906198BB03C098B39F7E98BBFB
:1000E0009BB394609BBBEFE9FFE03197F1F700C051
:1000F00000009BB39B7F9BBBEFE9FFE03197F1F7DB
:1001000000C0000080FF04C098B3916098BB03C09A
:1001100098B39E7F98BB81FF04C098B3926098BB50
:1001200003C098B39D7F98BB82FF04C098B39460CE
:1001300098BB03C098B39B7F98BB83FF04C088B370
:10014000806188BB03C088B38F7E88BB8BB384601B
:100150008BBB8FE99FE00197F1F700C000008BB3E4
:100160008B7F8BBBEFE9FFE03197F1F700C0000018
:1001700008959BB3977F9BBB84FF04C098B39160A5
:1001800098BB03C098B39E7F98BB85FF04C098B30B
:10019000926098BB03C098B39D7F98BB86FF04C054
:1001A00098B3946098BB03C098B39B7F98BB882397
:1001B00024F498B3906198BB03C098B39F7E98BB1A
:1001C0009BB394609BBBEFE9FFE03197F1F700C070
:1001D00000009BB39B7F9BBBEFE9FFE03197F1F7FA
:1001E00000C0000080FF04C098B3916098BB03C0BA
:1001F00098B39E7F98BB81FF04C098B3926098BB70
:1002000003C098B39D7F98BB82FF04C098B39460ED
:1002100098BB03C098B39B7F98BB83FF04C088B38F
:10022000806188BB03C088B38F7E88BB8BB384603A
:100230008BBB8FE99FE00197F1F700C000008BB303
:100240008B7F8BBBEFE9FFE03197F1F700C0000037
:1002500008958AB388608ABB8AB384608ABB87B3F7
:10026000816087BB87B3826087BB87B3846087BBAD
:1002700087B3806187BB2FEF89EF90E021508040EA
:100280009040E1F700C0000082E00E94B90088E2DF
:100290000E94B9008CE00E94B90086E00E94B9007B
:1002A00081E00E94B9002FEF86E791E02150804065
:1002B0009040E1F700C0000008950F931F93CF9383
:1002C000DF93CDB7DEB72A970FB6F894DEBF0FBE27
:1002D000CDBF99234CF490958095709561957F4F93
:1002E0008F4F9F4F01E001C000E06115710581054E
:1002F0009105D1F480E30E94490031C02AE030E04A
:1003000040E050E00E940904E1E0F0E0EC0FFD1F46
:10031000E10FF11D17FDFA95605D6083622F732F69
:10032000842F952F1F5F01C010E0611571058105B5
:10033000910521F71150013081F48DE20E944900AE
:100340000CC0E1E0F0E0EC0FFD1FE10FF11D17FD27
:10035000FA9580810E9449001150112394F72A9642
:100360000FB6F894DEBF0FBECDBFDF91CF911F91C6
:100370000F9108958F929F92AF92BF92CF92DF928A
:10038000EF92FF926B017C0120E030E040E251E40B
:100390000E947A030E94FA022AE030E040E050E036
:1003A0000E94E7034B015C01C701B6010E94FA02FB
:1003B0000E945D018EE20E944900C501B4010E94C5
:1003C0005D01FF90EF90DF90CF90BF90AF909F9036
:1003D0008F9008950E9429012FEF83ED90E3215023
:1003E00080409040E1F700C000000F2EC12CD12CBE
:1003F000F8E4EF2EF1E4FF2EF02D80E80E94B90022
:10040000C701B6010E94BA0120E030E040E05FE39E
:10041000C701B6010E948E026B017C012FEF83EDB4
:1004200090E3215080409040E1F700C00000E5CF0C
:100430001F920F920FB60F9211242F933F934F9359
:100440005F936F937F938F939F93AF93BF93EF933C
:10045000FF93E0916400F09165000995FF91EF91A1
:10046000BF91AF919F918F917F916F915F914F91CC
:100470003F912F910F900FBE0F901F9018951F92D4
:100480000F920FB60F9211242F933F934F935F93C8
:100490006F937F938F939F93AF93BF93EF93FF934C
:1004A000E0916200F09163000995FF91EF91BF9197
:1004B000AF919F918F917F916F915F914F913F91FC
:1004C0002F910F900FBE0F901F9018951F920F92B3
:1004D0000FB60F9211242F933F934F935F936F9317
:1004E0007F938F939F93AF93BF93EF93FF93E0918D
:1004F0006000F09161000995FF91EF91BF91AF917C
:100500009F918F917F916F915F914F913F912F912B
:100510000F900FBE0F901F9018955058BB27AA2719
:100520000E94A5020C9440030E94320338F00E94FE
:10053000390320F039F49F3F19F426F40C942F036B
:100540000EF4E095E7FB0C942903E92F0E94510378
:1005500058F3BA17620773078407950720F079F4F8
:10056000A6F50C9473030EF4E0950B2EBA2FA02D74
:100570000B01B90190010C01CA01A0011124FF2750
:10058000591B99F0593F50F4503E68F11A16F0404B
:10059000A22F232F342F4427585FF3CF469537954A
:1005A0002795A795F0405395C9F77EF41F16BA0B0F
:1005B000620B730B840BBAF09150A1F0FF0FBB1FBD
:1005C000661F771F881FC2F70EC0BA0F621F731F06
:1005D000841F48F4879577956795B795F7959E3F63
:1005E00008F0B0CF9395880F08F09927EE0F9795F4
:1005F000879508950E94590388F09F5798F0B92F66
:100600009927B751B0F0E1F0660F771F881F991F47
:100610001AF0BA95C9F714C0B13091F00E94730373
:10062000B1E008950C947303672F782F8827B85F83
:1006300039F0B93FCCF3869577956795B395D9F79F
:100640003EF490958095709561957F4F8F4F9F4FA9
:10065000089597F99F6780E870E060E008959FEF44
:1006600080EC089500240A94161617061806090649
:10067000089500240A941216130614060506089518
:10068000092E0394000C11F4882352F0BB0F40F4A0
:10069000BF2B11F460FF04C06F5F7F4F8F4F9F4FE0
:1006A000089557FD9058440F551F59F05F3F71F062
:1006B0004795880F97FB991F61F09F3F79F08795C9
:1006C0000895121613061406551FF2CF4695F1DF52
:1006D00008C0161617061806991FF1CF86957105E2
:1006E000610508940895E894BB2766277727CB0116
:1006F00097F908950E948D030C9440030E943203E1
:1007000038F00E94390320F0952311F00C9429034E
:100710000C942F0311240C9474030E94510370F362
:10072000959FC1F3950F50E0551F629FF001729F96
:10073000BB27F00DB11D639FAA27F00DB11DAA1FA5
:10074000649F6627B00DA11D661F829F2227B00DF2
:10075000A11D621F739FB00DA11D621F839FA00D7D
:10076000611D221F749F3327A00D611D231F849FCD
:10077000600D211D822F762F6A2F11249F57504024
:100780009AF0F1F088234AF0EE0FFF1FBB1F661F9F
:10079000771F881F91505040A9F79E3F510580F068
:1007A0000C9429030C9474035F3FE4F3983ED4F354
:1007B000869577956795B795F795E7959F5FC1F70C
:1007C000FE2B880F911D9695879597F90895A1E2C4
:1007D0001A2EAA1BBB1BFD010DC0AA1FBB1FEE1FBB
:1007E000FF1FA217B307E407F50720F0A21BB30B06
:1007F000E40BF50B661F771F881F991F1A9469F782
:1008000060957095809590959B01AC01BD01CF01DD
:100810000895052E97FB1EF400940E94200457FDB6
:1008200007D00E94E70307FC03D04EF40C94200489
:1008300050954095309521953F4F4F4F5F4F08950C
:1008400090958095709561957F4F8F4F9F4F08953C
:04085000F894FFCF4A
:00000001FF
