S01300004170706C69636174696F6E2E737265639D
S11300000C942A000C9419020C9440020C9467027C
S11300100C9447000C9447000C9447000C94470040
S11300200C9447000C9447000C9447000C94470030
S11300300C9447000C9447000C9447000C94470020
S11300400C9447000C9447000C9447000C94470010
S11300500C94470011241FBECFE5D8E0DEBFCDBF0E
S113006010E0A0E6B0E0E8E2F5E002C005900D92F1
S1130070A036B107D9F720E0A0E6B0E001C01D9298
S1130080A636B207E1F70E948D000C9492020C94FC
S1130090000041E00E94A500089541E00E9419017A
S11300A008958234A1F018F4813431F00895833432
S11300B0C9F0843411F108952BB381E090E002C0BB
S11300C0880F991F6A95E2F782278BBB089528B39E
S11300D081E090E002C0880F991F6A95E2F78227B9
S11300E088BB089525B381E090E002C0880F991F72
S11300F06A95E2F7822785BB089522B381E090E0F8
S113010002C0880F991F6A95E2F7822782BB08957F
S113011066E081E40E945100089566E081E40E9453
S1130120490065E081E40E94490065E081E40E94A1
S11301304D0062E081E00E948D0161E088E890E07A
S11301400E9404020E948E02FFCF41113BC0823400
S1130150A9F018F4813431F008958334D9F084344B
S113016029F108952AB381E090E002C0880F991F15
S11301706A95E2F7809582238ABB089527B381E0CC
S113018090E002C0880F991F6A95E2F78095822358
S113019087BB089524B381E090E002C0880F991FC3
S11301A06A95E2F78095822384BB089521B381E0A8
S11301B090E002C0880F991F6A95E2F78095822328
S11301C081BB08958234A1F018F4813431F008958C
S11301D08334C9F0843411F108952AB381E090E0A6
S11301E002C0880F991F6A95E2F7822B8ABB089593
S11301F027B381E090E002C0880F991F6A95E2F767
S1130200822B87BB089524B381E090E002C0880F5D
S1130210991F6A95E2F7822B84BB089521B381E08C
S113022090E002C0880F991F6A95E2F7822B81BB88
S1130230089541113BC08234A9F018F4813431F09F
S113024008958334D9F0843429F108952BB381E0DF
S113025090E002C0880F991F6A95E2F78095822387
S11302608BBB089528B381E090E002C0880F991FEA
S11302706A95E2F78095822388BB089525B381E0CF
S113028090E002C0880F991F6A95E2F78095822357
S113029085BB089522B381E090E002C0880F991FC6
S11302A06A95E2F78095822382BB08958234A1F097
S11302B018F4813431F008958334C9F0843411F191
S11302C008952BB381E090E002C0880F991F6A95CE
S11302D0E2F7822B8BBB089528B381E090E002C043
S11302E0880F991F6A95E2F7822B88BB089525B37E
S11302F081E090E002C0880F991F6A95E2F7822B93
S113030085BB089522B381E090E002C0880F991F55
S11303106A95E2F7822B82BB0895CF93C62F813072
S113032089F120F0823009F459C06CC08BB7806425
S11303308BBF40E062E084E40E94A500C13069F014
S113034028F0C23089F0C330B1F05CC085B78D7F2E
S113035085BF85B78E7F85BF55C085B78D7F85BF27
S113036085B7816085BF4EC085B7826085BF85B77C
S11303708E7F85BF47C085B7826085BF85B78160A2
S113038085BF40C08BB780688BBF40E063E084E4E6
S11303900E94A500C13069F028F0C23089F0C33052
S11303A0B1F030C085B7877F85BF85B78B7F85BFA8
S11303B029C085B7877F85BF85B7846085BF22C084
S11303C085B7886085BF85B78B7F85BF1BC085B720
S11303D0886085BF85B7846085BF14C08BB7806291
S11303E08BBF40E062E082E40E94A500C23019F0B5
S11303F0C33029F007C084B78F7B84BF03C084B7A0
S1130400806484BFCF910895613049F018F0623060
S113041059F0089590936500809364000895909333
S1130420630080936200089590936100809360005C
S113043008951F920F920FB60F9211242F933F939A
S11304404F935F936F937F938F939F93AF93BF93D8
S1130450EF93FF93E0916400F09165000995FF919B
S1130460EF91BF91AF919F918F917F916F915F9128
S11304704F913F912F910F900FBE0F901F901895A1
S11304801F920F920FB60F9211242F933F934F9305
S11304905F936F937F938F939F93AF93BF93EF93E8
S11304A0FF93E0916200F09163000995FF91EF9151
S11304B0BF91AF919F918F917F916F915F914F9178
S11304C03F912F910F900FBE0F901F9018951F9280
S11304D00F920FB60F9211242F933F934F935F9374
S11304E06F937F938F939F93AF93BF93EF93FF93F8
S11304F0E0916000F09161000995FF91EF91BF9147
S1130500AF919F918F917F916F915F914F913F91A7
S11305102F910F900FBE0F901F9018958FB7806882
S10B05208FBF0895F894FFCF8A
S9030000FC
