S01300004170706C69636174696F6E2E737265639D
S11300000C942A000C94F0000C9417010C943E01FB
S11300100C9447000C9447000C9447000C94470040
S11300200C9447000C9447000C948C010C946501CB
S11300300C9447000C9447000C9447000C94470020
S11300400C9447000C9447000C9447000C94470010
S11300500C94470011241FBECFE5D8E0DEBFCDBF0E
S113006010E0A0E6B0E0EAE6F3E002C005900D92ED
S1130070A036B107D9F720E0A0E6B0E001C01D9298
S1130080A836B207E1F70E94ED000C94B3010C947A
S113009000009BB3977F9BBB84FF04C098B391601F
S11300A098BB03C098B39E7F98BB85FF04C098B3E8
S11300B0926098BB03C098B39D7F98BB86FF04C031
S11300C098B3946098BB03C098B39B7F98BB882374
S11300D024F498B3906198BB03C098B39F7E98BBF7
S11300E09BB394609BBBEFE9FFE03197F1F700C04D
S11300F000009BB39B7F9BBBEFE9FFE03197F1F7D7
S113010000C0000080FF04C098B3916098BB03C096
S113011098B39E7F98BB81FF04C098B3926098BB4C
S113012003C098B39D7F98BB82FF04C098B39460CA
S113013098BB03C098B39B7F98BB83FF04C088B36C
S1130140806188BB03C088B38F7E88BB8BB3846017
S11301508BBB8FE99FE00197F1F700C000008BB3E0
S11301608B7F8BBBEFE9FFE03197F1F700C0000014
S113017008958AB388608ABB8AB384608ABB87B3D4
S1130180816087BB87B3826087BB87B3846087BB8A
S113019087B3806187BB2FEF89EF90E021508040C7
S11301A09040E1F700C0000082E00E94490088E22C
S11301B00E9449008CE00E94490086E00E944900A8
S11301C081E00E9449002FEF86E791E021508040B2
S11301D09040E1F700C0000008950E94B900FFCFED
S11301E01F920F920FB60F9211242F933F934F93A8
S11301F05F936F937F938F939F93AF93BF93EF938B
S1130200FF93E0916400F09165000995FF91EF91EF
S1130210BF91AF919F918F917F916F915F914F911A
S11302203F912F910F900FBE0F901F9018951F9222
S11302300F920FB60F9211242F933F934F935F9316
S11302406F937F938F939F93AF93BF93EF93FF939A
S1130250E0916200F09163000995FF91EF91BF91E5
S1130260AF919F918F917F916F915F914F913F914A
S11302702F910F900FBE0F901F9018951F920F9201
S11302800FB60F9211242F933F934F935F936F9365
S11302907F938F939F93AF93BF93EF93FF93E091DB
S11302A06000F09161000995FF91EF91BF91AF91CA
S11302B09F918F917F916F915F914F913F912F917A
S11302C00F900FBE0F901F9018951F920F920FB6AC
S11302D00F9211242F933F934F935F936F937F93C8
S11302E08F939F93AF93BF93EF93FF93E091660037
S11302F0F09167000995FF91EF91BF91AF919F91A4
S11303008F917F916F915F914F913F912F910F90BA
S11303100FBE0F901F9018951F920F920FB60F9259
S113032011242F933F934F935F936F937F938F93F6
S11303309F93AF93BF93EF93FF93E0916600F09187
S113034067000995FF91EF91BF91AF919F918F91B4
S11303507F916F915F914F913F912F910F900FBEBD
S10D03600F901F901895F894FFCF3A
S9030000FC
