:100000000C9431000C9428040C944F040C94760446
:100010000C944E000C944E000C944E000C949807D7
:100020000C944E000C944E000C94C4040C949D044B
:100030000C944E000C944E000C944E000C944E0008
:100040000C944E000C944E000C944E000C944E00F8
:100050000C944E00C502CC02D302DA02E102E8029F
:10006000EF0211241FBECFE5D8E0DEBFCDBF10E008
:10007000A0E6B0E0E2E3F7E102C005900D92AC39F2
:10008000B107D9F725E0ACE9B0E001C01D92A43278
:10009000B207E1F70E941E030C94970B0C9400002A
:1000A00084B3806284BB84B3806184BB84B3886082
:1000B00084BB84B3846084BB81B38F7781BB81B3FD
:1000C0008F7B81BB81B38F7D81BB81B3877F81BBF8
:1000D00082B3806882BB82B3806482BB82B3806259
:1000E00082BB82B3886082BB089585B38F7D85BB58
:1000F00085B3806185BB85B3886085BB85B384602B
:1001000085BB879B5CC0869B5CC0859B5CC0839BDA
:100110005CC08FE19EE40197F1F700C0000085B359
:10012000806285BB85B38F7E85BB85B3886085BBC8
:1001300085B3846085BB879B4AC0869B4AC0859BEC
:100140004AC0839B4AC08FE19EE40197F1F700C04B
:10015000000085B3806285BB85B3806185BB85B3B4
:10016000877F85BB85B3846085BB879B38C0869BB2
:1001700038C0859B38C0839B38C08FE19EE40197CF
:10018000F1F700C0000085B3806285BB85B3806154
:1001900085BB85B3886085BB85B38B7F85BB879B1B
:1001A00026C0869B26C0859B26C0839B26C08FE1E8
:1001B0009EE40197F1F700C000008FEF089580E002
:1001C000089581E0089580E0089580E0089582E038
:1001D000089580E0089583E0089580E0089580E028
:1001E000089584E0089580E0089580E0089580E017
:1001F000089587E0089586E0089585E00895CF93F7
:100200000E947500C82F8F3FD9F380E80E948701B4
:100210006C2F0C2E000C770B880B990B0E942B0275
:100220000E9475008F3FE1F78C2FCF9108959BB30B
:1002300098609BBB84FF04C098B3916098BB03C0D7
:1002400098B39E7F98BB85FF04C098B3926098BB1B
:1002500003C098B39D7F98BB86FF04C098B3946099
:1002600098BB03C098B39B7F98BB882324F498B3B2
:10027000906198BB03C098B39F7E98BB9BB394607A
:100280009BBBEFE9FFE03197F1F700C000009BB3A3
:100290009B7F9BBBEFE9FFE03197F1F700C00000C7
:1002A00080FF04C098B3916098BB03C098B39E7F51
:1002B00098BB81FF04C098B3926098BB03C098B309
:1002C0009D7F98BB82FF04C098B3946098BB03C025
:1002D00098B39B7F98BB83FF04C088B3806188BBC1
:1002E00003C088B38F7E88BB8BB384608BBB8FE9E0
:1002F0009FE00197F1F700C000008BB38B7F8BBBB1
:10030000EFE9FFE03197F1F700C0000008959BB3DB
:10031000977F9BBB84FF04C098B3916098BB03C0D8
:1003200098B39E7F98BB85FF04C098B3926098BB3A
:1003300003C098B39D7F98BB86FF04C098B39460B8
:1003400098BB03C098B39B7F98BB882324F498B3D1
:10035000906198BB03C098B39F7E98BB9BB3946099
:100360009BBBEFE9FFE03197F1F700C000009BB3C2
:100370009B7F9BBBEFE9FFE03197F1F700C00000E6
:1003800080FF04C098B3916098BB03C098B39E7F70
:1003900098BB81FF04C098B3926098BB03C098B328
:1003A0009D7F98BB82FF04C098B3946098BB03C044
:1003B00098B39B7F98BB83FF04C088B3806188BBE0
:1003C00003C088B38F7E88BB8BB384608BBB8FE9FF
:1003D0009FE00197F1F700C000008BB38B7F8BBBD0
:1003E000EFE9FFE03197F1F700C0000008958AB30C
:1003F00088608ABB8AB384608ABB87B3816087BB0D
:1004000087B3826087BB87B3846087BB87B3806113
:1004100087BB2FEF89EF90E0215080409040E1F7BB
:1004200000C0000082E00E94870188E20E948701EC
:100430008CE00E94870186E00E94870181E00E9493
:1004400087012FEF86E791E0215080409040E1F74F
:1004500000C0000008950F931F93CF93DF93CDB793
:10046000DEB72A970FB6F894DEBF0FBECDBF992333
:100470004CF490958095709561957F4F8F4F9F4F6D
:1004800001E001C000E06115710581059105D1F41D
:1004900080E30E94170131C02AE030E040E050E0E4
:1004A0000E94720BE1E0F0E0EC0FFD1FE10FF11D87
:1004B00017FDFA95605D6083622F732F842F952F4F
:1004C0001F5F01C010E0611571058105910521F7DD
:1004D0001150013081F48DE20E9417010CC0E1E05F
:1004E000F0E0EC0FFD1FE10FF11D17FDFA95808183
:1004F0000E9417011150112394F72A960FB6F89411
:10050000DEBF0FBECDBFDF91CF911F910F91089538
:100510000F931F93CF938C01C0E003C00E9417017B
:10052000CF5FF801EC0FF11D80818111F7CFCF91E2
:100530001F910F91089541E00E944003089541E00A
:100540000E94B403089540E00E94B40308950E94FD
:1005500050000E94F7010E94FF00C82F80939D0069
:1005600080EC0E94870182E690E00E94880280EC85
:100570000E9487018C2F90E0FC013197E730F10554
:10058000A0F5E65DFF4F0C94910BC093A00089E6A7
:1005900090E00E94880229C0C093A0008CE690E001
:1005A0000E94880222C0C093A0008FE690E00E94C3
:1005B00088021BC0C093A00082E790E00E948802DE
:1005C00014C0C0939F0087E790E00E9488020DC08E
:1005D000C0939F008CE790E00E94880206C0C09301
:1005E0009F0082E890E00E94880281E090E00E94F3
:1005F000B50AB1CF65E081E40E949B0280919D0025
:100600008730B9F480919C0081110AC010929E003D
:1006100081E080939C0065E081E40E949F0209C014
:1006200081E080939E0010929C0065E081E40E942E
:10063000A30288EE93E00E94B50AE0CFEF92FF920A
:100640000F93E12CF12C01E020E030E046E950E08E
:1006500067E870E087EA92E00E94050920E030E058
:1006600044E650E06EE870E08AEF92E00E940509EF
:100670000E94590980E090E00F91FF90EF9008955B
:1006800041113BC08234A9F018F4813431F008954F
:100690008334D9F0843429F108952AB381E090E0BD
:1006A00002C0880F991F6A95E2F7809582238ABB62
:1006B000089527B381E090E002C0880F991F6A95E2
:1006C000E2F78095822387BB089524B381E090E010
:1006D00002C0880F991F6A95E2F78095822384BB38
:1006E000089521B381E090E002C0880F991F6A95B8
:1006F000E2F78095822381BB08958234A1F018F43B
:10070000813431F008958334C9F0843411F10895AF
:100710002AB381E090E002C0880F991F6A95E2F742
:10072000822B8ABB089527B381E090E002C0880F36
:10073000991F6A95E2F7822B87BB089524B381E065
:1007400090E002C0880F991F6A95E2F7822B84BB64
:10075000089521B381E090E002C0880F991F6A9547
:10076000E2F7822B81BB089541113BC08234A9F08E
:1007700018F4813431F008958334D9F0843429F1A8
:1007800008952BB381E090E002C0880F991F6A950D
:10079000E2F7809582238BBB089528B381E090E037
:1007A00002C0880F991F6A95E2F78095822388BB63
:1007B000089525B381E090E002C0880F991F6A95E3
:1007C000E2F78095822385BB089522B381E090E013
:1007D00002C0880F991F6A95E2F78095822382BB39
:1007E00008958234A1F018F4813431F008958334EF
:1007F000C9F0843411F108952BB381E090E002C078
:10080000880F991F6A95E2F7822B8BBB089528B356
:1008100081E090E002C0880F991F6A95E2F7822B71
:1008200088BB089525B381E090E002C0880F991F2E
:100830006A95E2F7822B85BB089522B381E090E0B0
:1008400002C0880F991F6A95E2F7822B82BB089538
:100850001F920F920FB60F9211242F933F934F9335
:100860005F936F937F938F939F93AF93BF93EF9318
:10087000FF93E091A500F091A6000995FF91EF91FB
:10088000BF91AF919F918F917F916F915F914F91A8
:100890003F912F910F900FBE0F901F9018951F92B0
:1008A0000F920FB60F9211242F933F934F935F93A4
:1008B0006F937F938F939F93AF93BF93EF93FF9328
:1008C000E091A300F091A4000995FF91EF91BF91F1
:1008D000AF919F918F917F916F915F914F913F91D8
:1008E0002F910F900FBE0F901F9018951F920F928F
:1008F0000FB60F9211242F933F934F935F936F93F3
:100900007F938F939F93AF93BF93EF93FF93E09168
:10091000A100F091A2000995FF91EF91BF91AF91D5
:100920009F918F917F916F915F914F913F912F9107
:100930000F900FBE0F901F9018951F920F920FB639
:100940000F9211242F933F934F935F936F937F9355
:100950008F939F93AF93BF93EF93FF93E091A70083
:10096000F091A8000995FF91EF91BF91AF919F91F0
:100970008F917F916F915F914F913F912F910F9048
:100980000FBE0F901F9018951F920F920FB60F92E7
:1009900011242F933F934F935F936F937F938F9384
:1009A0009F93AF93BF93EF93FF93E091A700F091D4
:1009B000A8000995FF91EF91BF91AF919F918F9101
:1009C0007F916F915F914F913F912F910F900FBE4B
:1009D0000F901F901895EEEAF0E083EB90E0918382
:1009E000808313821282EAEAF0E087EE93E0938339
:1009F000828311821082A2EBB0E014969C938E93B6
:100A000013971296FC93EE93119708950F931F93EB
:100A1000CF93DF93EC010E9483098091A90081119B
:100A200005C00E94EB0481E08093A900209709F0A3
:100A30002496CE010197863E934008F056C0E0917F
:100A4000AE00F091AF00AEEAB0E002C0DF01FC0101
:100A5000828193818C179D0720F48081918100977A
:100A6000A9F780E0EA3AF80709F442C00D911C9119
:100A700011970C5F1F4F808191818D939C93828190
:100A800093818C1B9D0B8930910510F1AF014C0FA8
:100A90005D1FDA0113969C938E931297D383C283C2
:100AA00012962D913C9113976EEA70E001C0BD0142
:100AB000EB01A881B98112968D919C9113978217B1
:100AC0009307A8F3EA01B983A883DB014D935C93F4
:100AD000228133818091600090916100821B930B91
:100AE000909361008093600005C000E010E002C0B8
:100AF00000E010E00E94430AC801DF91CF911F91EE
:100B00000F9108950F931F93CF93DF93009741F1B7
:100B1000EC018C01045011090E948309F801428103
:100B20005381AEEAB0E001C0DF01ED91FC91119775
:100B30002281338124173507B8F32497F983E8839A
:100B40000D931C938A819B812091600030916100FC
:100B5000820F931F90936100809360000E94430A6C
:100B6000DF91CF911F910F910895FC01039692831D
:100B700081832FEF3FEF3483238396838583908790
:100B8000878310820895FC01118610860895CF9303
:100B9000DF939C01FB01DC011196CD91DC91129752
:100BA000D383C2838C819D81958384838C819D8135
:100BB000DC0113967C936E9312977D836C8331874F
:100BC0002087F90180818F5F8083DF91CF91089525
:100BD000CF93DF93EB01488159814F3F2FEF5207AD
:100BE00021F4FC01A781B0850DC0DC01139601C082
:100BF000DF011296ED91FC9113972081318142170C
:100C00005307B0F71296ED91FC911397FB83EA839B
:100C1000D583C483BD83AC831396DC93CE931297A4
:100C200099878887FC0120812F5F2083DF91CF91F6
:100C30000895CF93DF93FC01A085B185C281D38154
:100C4000848195819D838C83C481D58182819381A8
:100C50009B838A8311968D919C911297E817F907CF
:100C600031F48481958112969C938E93119711860D
:100C700010868C9181508C93DF91CF9108951BBC8D
:100C800089EF8ABD8BE08EBD89B7806189BF0895E9
:100C900031E1FC013083319722E220833197A3E3D5
:100CA000A083319760833197708331971082319799
:100CB00060E8608331971082319762E060833197FA
:100CC00063E06083319764E06083319765E060831F
:100CD000319766E06083319767E06083319768E021
:100CE0006083319769E06083319760E16083319779
:100CF0003083319732E13083319733E1308331975C
:100D000034E13083319735E13083319736E13083F8
:100D1000319737E13083319738E13083319739E1CA
:100D20003083319730E23083319731E2308331972D
:100D30002083319723E2208331974083319750837A
:100D4000319726E22083319727E22083319728E2EA
:100D50002083319729E22083319720E32083319744
:100D600021E32083869708950E943F06A0912205E3
:100D7000B0912305CD91CDBFDD91DEBFFF91EF9105
:100D8000DF91CF91BF91AF919F918F917F916F91A3
:100D90005F914F913F912F911F910F91FF90EF9095
:100DA000DF90CF90BF90AF909F908F907F906F908B
:100DB0005F904F903F902F901F900F900FBE0F901D
:100DC000089581E008950F920FB6F8940F921F9244
:100DD00011242F923F924F925F926F927F928F9247
:100DE0009F92AF92BF92CF92DF92EF92FF920F93BA
:100DF0001F932F933F934F935F936F937F938F93A3
:100E00009F93AF93BF93CF93DF93EF93FF93A09103
:100E10002205B09123050DB60D920EB60D920E94DB
:100E2000FC0AA0912205B0912305CD91CDBFDD91A3
:100E3000DEBFFF91EF91DF91CF91BF91AF919F9175
:100E40008F917F916F915F914F913F912F911F9162
:100E50000F91FF90EF90DF90CF90BF90AF909F9059
:100E60008F907F906F905F904F903F902F901F904A
:100E70000F900FBE0F9008950F920FB6F8940F9237
:100E80001F9211242F923F924F925F926F927F9206
:100E90008F929F92AF92BF92CF92DF92EF92FF928A
:100EA0000F931F932F933F934F935F936F937F9372
:100EB0008F939F93AF93BF93CF93DF93EF93FF9362
:100EC000A0912205B09123050DB60D920EB60D929C
:100ED0000E94890981110E94FC0AA0912205B0910B
:100EE0002305CD91CDBFDD91DEBFFF91EF91DF9165
:100EF000CF91BF91AF919F918F917F916F915F91B2
:100F00004F913F912F911F910F91FF90EF90DF90A4
:100F1000CF90BF90AF909F908F907F906F905F9099
:100F20004F903F902F901F900F900FBE0F900895FD
:100F30000E943C071895E091BD04F091BE048081A9
:100F4000811107C08FEF9FEF90939E0480939D04C3
:100F50000895E091BD04F091BE040580F681E02D76
:100F60000680F781E02D8281938190939E04809387
:100F70009D040895CF93DF93EC018F89988D0E9493
:100F80008205CE010E948205DF91CF9108956F9274
:100F90007F928F929F92AF92BF92CF92DF92EF9209
:100FA0000F931F93CF93DF93CDB7DEB74C01F501BD
:100FB0008789908D215031093C01620E731E20E01B
:100FC0000FC0822F90E0FB01E80FF91F3081D5019F
:100FD000A80FB91F59963C938081882319F02F5F81
:100FE000283078F3F50110A2F8E0FE1518F46894A3
:100FF000EE24E3F8F501E68AE1A212A2C501029609
:101000000E94C305C5010C960E94C305F501B18677
:10101000A08689E090E08E19910995878487B38A2C
:10102000A28A13A214A215A216A217A2A801B401A3
:10103000C3010E944806F50191838083C114D10445
:1010400019F0F601B182A082DF91CF911F910F912B
:10105000EF90DF90CF90BF90AF909F908F907F9058
:101060006F900895CF93C0E010C08C2F90E09C014A
:10107000220F331F220F331F220F331F820F931FA4
:101080008F529B4F0E94B505CF5FC93070F388EC3B
:1010900094E00E94B5058FEB94E00E94B50582EBC9
:1010A00094E00E94B50589EA94E00E94B50588ECB9
:1010B00094E09093BE048093BD048FEB94E09093F2
:1010C000BC048093BB04CF910895CF93DF93EC01D0
:1010D0000FB6F8940F928091A7048F5F8093A704B6
:1010E0008091220590912305892B59F4D0932305F3
:1010F000C09322058091A704813099F40E943208A0
:1011000010C08091A30481110CC0E0912205F091E0
:10111000230596898E89891720F0D0932305C093E3
:10112000220580919F048F5F80939F048E89909108
:10113000A404981710F48093A40490E09C01220F5B
:10114000331F220F331F220F331F820F931FBE0145
:101150006E5F7F4F8F529B4F0E94C7050F900FBE4F
:101160008091A304882351F0E0912205F09123059A
:1011700096898E89981710F40E94E306DF91CF912B
:1011800008950F931F93CF93DF93EC010091A50473
:101190001091A604809122059091230502960E9449
:1011A0001906C00FD11FE0912205F0912305D383CA
:1011B000C283C017D10768F460912205709123059E
:1011C0008091BB049091BC046E5F7F4F0E94E80544
:1011D00017C060912205709123058091BD04909104
:1011E000BE046E5F7F4F0E94E80580919D04909140
:1011F0009E04C817D90720F4D0939E04C0939D0481
:10120000DF91CF911F910F9108952F923F924F92AE
:101210005F926F927F928F929F92AF92BF92CF9286
:10122000DF92EF92FF920F931F93CF93DF933C01D6
:101230001B015A012901CA010E9406056C01892B74
:1012400071F088E290E00E940605EC01892B19F00C
:10125000D88ECF8A06C0C6010E94820502C0C0E0B7
:10126000D0E0209791F0950140E050E0812C912C46
:101270005E016701E02E8201B101C3010E94C70730
:10128000CE010E94650881E001C08FEFDF91CF9110
:101290001F910F91FF90EF90DF90CF90BF90AF9094
:1012A0009F908F907F906F905F904F903F902F9086
:1012B0000895EF92FF920F930F2EFBE9EF2EF4E0CB
:1012C000FF2EF02D00E020E030E040E550E066E940
:1012D00070E089EF9AE00E940509813081F4F8946A
:1012E0008FEF9FEF90939E0480939D0481E0809305
:1012F000A3041092A6041092A5040E94B4060F91B4
:10130000FF90EF90089580919A048F5F80939A04E4
:101310000895DF92EF92FF920F931F93CF93DF9385
:1013200080919A04811197C0E090A504F090A604E2
:101330008FEFE81AF80AF092A604E092A504E114EF
:10134000F104B9F48091BD049091BE042091BB04D6
:101350003091BC043093BE042093BD049093BC0430
:101360008093BB048091A0048F5F8093A0040E94AF
:101370009B0780919D0490919E04E816F90628F43D
:10138000D12C53C0DD24D39401C0D12CE091BD04F5
:10139000F091BE048081811107C08FEF9FEF909381
:1013A0009E0480939D0441C0E091BD04F091BE0471
:1013B0000580F681E02DC681D7818A819B81E81660
:1013C000F90628F490939E0480939D042EC08E010C
:1013D0000E5F1F4FC8010E9419068C899D89892BB9
:1013E00021F0CE010C960E9419068E899091A404DA
:1013F000981710F48093A40490E09C01220F331FEF
:10140000220F331F220F331F820F931FB8018F52F9
:101410009B4F0E94C7059E89E0912205F09123050C
:101420008689981708F0AECFB1CFE0912205F091F0
:101430002305868990E0FC01EE0FFF1FEE0FFF1FD2
:10144000EE0FFF1F8E0F9F1FFC01EF52FB4F80819D
:10145000823040F409C08091A2048F5F8093A2047F
:10146000D12C02C0DD24D3948091A104882311F0F3
:10147000DD24D3948D2DDF91CF911F910F91FF909B
:10148000EF90DF9008950F931F93CF93DF930FB6E4
:10149000F8940F9280919A04815080939A048091DD
:1014A0009A04811158C08091A704811133C056C09D
:1014B000E091B704F091B804C681D781CE010C96B3
:1014C0000E9419068E010E5F1F4FC8010E94190667
:1014D0008E899091A404981710F48093A40490E04E
:1014E0009C01220F331F220F331F220F331F820F45
:1014F000931FB8018F529B4F0E94C7059E89E091B0
:101500002205F09123058689981730F081E08093B9
:10151000A10402C0C0E0D0E08091B2048111C8CF24
:10152000CD2B11F00E949B07C091A204CC2359F04F
:101530000E948909882319F081E08093A104C15099
:10154000B9F71092A2048091A104882331F00E947F
:10155000E30681E003C080E001C080E00F900FBE91
:10156000DF91CF911F910F910895CF93DF93EC01FD
:10157000892B49F00E94830960E0CE010E94C108D6
:101580000E94430A01C080E0811102C00E94E3066C
:10159000DF91CF910895CF93DF9324C00E948309F8
:1015A000C091A9040E94430ACC23E1F00FB6F8943D
:1015B0000F92E091AE04F091AF04C681D781CE01C5
:1015C00002960E9419068091A70481508093A70477
:1015D0008091A80481508093A8040F900FBECE0183
:1015E0000E94BA078091A8048111D8CFDF91CF91D2
:1015F00008950E94CB0AFDCF80919A04882321F0A0
:1016000081E08093A10408951092A1042091A40484
:1016100001C02150822F90E0FC01EE0FFF1FEE0F62
:10162000FF1FEE0FFF1FE80FF91FEF52FB4F308136
:10163000332379F3AC01440F551F440F551F440F5A
:10164000551F480F591FDF010180F281E02D0280F4
:10165000F381E02D1296FC93EE9311974C525B4F61
:10166000E417F50729F442815381FD015283418338
:10167000FC01EE0FFF1FEE0FFF1FEE0FFF1F8E0F7F
:101680009F1FFC01EF52FB4F0180F281E02D86810C
:10169000978190932305809322052093A4040895B5
:1016A000A1E21A2EAA1BBB1BFD010DC0AA1FBB1F66
:1016B000EE1FFF1FA217B307E407F50720F0A21BD8
:1016C000B30BE40BF50B661F771F881F991F1A9445
:1016D00069F760957095809590959B01AC01BD016F
:1016E000CF010895052E97FB1EF400940E94890BEC
:1016F00057FD07D00E94500B07FC03D04EF40C940A
:10170000890B50954095309521953F4F4F4F5F4F36
:10171000089590958095709561957F4F8F4F9F4F5D
:101720000895EE0FFF1F0590F491E02D0994F894B1
:02173000FFCFE9
:10173200E703202020202020005570004C4C00524E
:101742005200646F776E004C656674005269676878
:1017520074004D61696E004B6579706164004D657E
:0C17620061737572650049444C4500003D
:00000001FF
