S00F000053746F726167652E7372656340
S11300000C942A000C948F020C94B6020C94DD021A
S11300100C9447000C9447000C9447000C94470040
S11300200C9447000C9447000C9440030C9419035F
S11300300C9447000C9447000C9447000C94470020
S11300400C9447000C9447000C9447000C94470010
S11300500C94470011241FBECFE5D8E0DEBFCDBF0E
S113006010E0A0E6B0E0E4E5F7E002C005900D92F0
S1130070AC37B107D9F720E0ACE7B0E001C01D927E
S1130080A738B207E1F70E941A020C94A8030C9453
S113009000009BB398609BBB84FF04C09BB390613A
S11300A09BBB03C09BB39F7E9BBB85FF04C09BB3DC
S11300B090629BBB03C09BB39F7D9BBB86FF04C028
S11300C09BB390649BBB03C09BB39F7B9BBB882368
S11300D024F49BB390689BBB03C09BB39F779BBBEB
S11300E09BB394609BBBE7EEF3E03197F1F700C05C
S11300F000009BB39B7F9BBBE7EEF3E03197F1F7E6
S113010000C0000080FF04C09BB390619BBB03C090
S11301109BB39F7E9BBB81FF04C09BB390629BBB40
S113012003C09BB39F7D9BBB82FF04C09BB39064C1
S11301309BBB03C09BB39F7B9BBB83FF04C08BB360
S113014080688BBB03C08BB38F778BBB8BB384600E
S11301508BBB87EE93E00197F1F700C000008BB3EF
S11301608B7F8BBBE7EEF3E03197F1F700C0000023
S113017008959BB3977F9BBB84FF04C09BB390619E
S11301809BBB03C09BB39F7E9BBB85FF04C09BB3FB
S113019090629BBB03C09BB39F7D9BBB86FF04C047
S11301A09BB390649BBB03C09BB39F7B9BBB882387
S11301B024F49BB390689BBB03C09BB39F779BBB0A
S11301C09BB394609BBBE7EEF3E03197F1F700C07B
S11301D000009BB39B7F9BBBE7EEF3E03197F1F705
S11301E000C0000080FF04C09BB390619BBB03C0B0
S11301F09BB39F7E9BBB81FF04C09BB390629BBB60
S113020003C09BB39F7D9BBB82FF04C09BB39064E0
S11302109BBB03C09BB39F7B9BBB83FF04C08BB37F
S113022080688BBB03C08BB38F778BBB8BB384602D
S11302308BBB87EE93E00197F1F700C000008BB30E
S11302408B7F8BBBE7EEF3E03197F1F700C0000042
S113025008958AB388608ABB8AB384608ABB8AB3F0
S113026080618ABB8AB380628ABB8AB380648ABB9A
S11302708AB380688ABB8FE19EE40197F1F700C0DE
S1130280000082E00E94B90088E20E94B9008CE07C
S11302900E94B90086E00E94B90081E00E94B90082
S11302A08FE295E70197F1F700C0000008950F93DE
S11302B01F93CF93DF93CDB7DEB72A970FB6F89489
S11302C0DEBF0FBECDBF99234CF4909580957095F9
S11302D061957F4F8F4F9F4F01E001C000E0611592
S11302E0710581059105D1F480E30E94490031C074
S11302F02AE030E040E050E00E948903E1E0F0E0D1
S1130300EC0FFD1FE10FF11D17FDFA95605D608391
S1130310622F732F842F952F1F5F01C010E061158A
S113032071058105910521F71150013081F48DE2A9
S11303300E9449000CC0E1E0F0E0EC0FFD1FE10F6A
S1130340F11D17FDFA9580810E9449001150112377
S113035094F72A960FB6F894DEBF0FBECDBFDF9197
S1130360CF911F910F9108950F931F93CF938C01F9
S1130370C0E003C00E944900CF5FF801EC0FF11DFB
S113038080818111F7CFCF911F910F91089580E85B
S11303900E94B90080E690E00E94B401609186005A
S11303A070E080E090E00E94570188E80E94B90064
S11303B086E690E00E94B4016091840070E080E0E1
S11303C090E00E94570180EC0E94B9008EE690E014
S11303D00E94B40187EC0E94B9006091850070E02E
S11303E080E090E00E945701089580E80E94B900DF
S11303F080E690E00E94B4018AE790E00E94B40194
S113040088E80E94B90086E690E00E94B4018AE779
S113041090E00E94B40180EC0E94B9008EE690E066
S11304200E94B40187EC0E94B90089E790E00E9421
S1130430B40108950E9429010E94040384B38160D9
S113044084BB84B3826084BB85B3816085BB85B380
S1130450826085BB83E190E00E9487028434A9F422
S113046084E190E00E9487028093850085E190E01A
S11304700E9487028093860086E190E00E948702B2
S1130480809384000E94C70116C064E483E190E075
S11304900E947C0260E084E190E00E947C0260E0C3
S11304A085E190E00E947C0260E086E190E00E9499
S11304B07C020E94F50185E890E00E94130386E81F
S11304C090E00E94130384E890E00E94130360917B
S11304D0850084E190E00E947C026091860085E1C1
S11304E090E00E947C026091840086E190E00E948A
S11304F07C020E94C701DFCFE199FECF8EBB6DBBAA
S11305008CB384608CBB8CB382608CBB0895E199FE
S1130510FECF8EBB8CB381608CBB8DB308951F92CC
S11305200F920FB60F9211242F933F934F935F9323
S11305306F937F938F939F93AF93BF93EF93FF93A7
S1130540E0918000F09181000995FF91EF91BF91B6
S1130550AF919F918F917F916F915F914F913F9157
S11305602F910F900FBE0F901F9018951F920F920E
S11305700FB60F9211242F933F934F935F936F9372
S11305807F938F939F93AF93BF93EF93FF93E091E8
S11305907E00F0917F000995FF91EF91BF91AF919B
S11305A09F918F917F916F915F914F913F912F9187
S11305B00F900FBE0F901F9018951F920F920FB6B9
S11305C00F9211242F933F934F935F936F937F93D5
S11305D08F939F93AF93BF93EF93FF93E0917C002E
S11305E0F0917D000995FF91EF91BF91AF919F919B
S11305F08F917F916F915F914F913F912F910F90C8
S11306000FBE0F901F90189587B38F7D87BB87B35C
S1130610806487BB87B38F7E87BB87B38F7787BBA5
S113062081E68DB90895779BFECF2FB1FC0120831D
S113063008951F920F920FB60F9211242F933F9398
S11306404F935F936F937F938F939F93AF93BF93D6
S1130650EF93FF93E0918200F09183000995FF915D
S1130660EF91BF91AF919F918F917F916F915F9126
S11306704F913F912F910F900FBE0F901F9018959F
S11306801F920F920FB60F9211242F933F934F9303
S11306905F936F937F938F939F93AF93BF93EF93E6
S11306A0FF93E0918200F09183000995FF91EF910F
S11306B0BF91AF919F918F917F916F915F914F9176
S11306C03F912F910F900FBE0F901F901895A1E2AC
S11306D01A2EAA1BBB1BFD010DC0AA1FBB1FEE1FB8
S11306E0FF1FA217B307E407F50720F0A21BB30B03
S11306F0E40BF50B661F771F881F991F1A9469F77F
S113070060957095809590959B01AC01BD01CF01DA
S11307100895052E97FB1EF400940E94A00357FD34
S113072007D00E94670307FC03D04EF40C94A00387
S113073050954095309521953F4F4F4F5F4F089509
S113074090958095709561957F4F8F4F9F4F089539
S1070750F894FFCF47
S11307544741533A2000466C616D653A2000544584
S10F07644D503A2020202020002D2D00B4
S9030000FC
