S01300004170706C69636174696F6E2E737265639D
S11300000C942A000C94BB020C94E2020C94090395
S11300100C9447000C9447000C9447000C94470040
S11300200C9447000C9447000C9447000C94510323
S11300300C9447000C9447000C9447000C94470020
S11300400C9447000C9447000C9447000C94470010
S11300500C94470011241FBECFE5D8E0DEBFCDBF0E
S113006010E0A0E6B0E0E6E7F7E002C005900D92EC
S1130070A037B107D9F720E0A0E7B0E001C01D9296
S1130080AA37B207E1F70E9425020C94B9030C9435
S113009000009BB398609BBB84FF04C098B391603D
S11300A098BB03C098B39E7F98BB85FF04C098B3E8
S11300B0926098BB03C098B39D7F98BB86FF04C031
S11300C098B3946098BB03C098B39B7F98BB882374
S11300D024F498B3906198BB03C098B39F7E98BBF7
S11300E09BB394609BBBEFE9FFE03197F1F700C04D
S11300F000009BB39B7F9BBBEFE9FFE03197F1F7D7
S113010000C0000080FF04C098B3916098BB03C096
S113011098B39E7F98BB81FF04C098B3926098BB4C
S113012003C098B39D7F98BB82FF04C098B39460CA
S113013098BB03C098B39B7F98BB83FF04C088B36C
S1130140806188BB03C088B38F7E88BB8BB3846017
S11301508BBB8FE99FE00197F1F700C000008BB3E0
S11301608B7F8BBBEFE9FFE03197F1F700C0000014
S113017008959BB3977F9BBB84FF04C098B39160A1
S113018098BB03C098B39E7F98BB85FF04C098B307
S1130190926098BB03C098B39D7F98BB86FF04C050
S11301A098B3946098BB03C098B39B7F98BB882393
S11301B024F498B3906198BB03C098B39F7E98BB16
S11301C09BB394609BBBEFE9FFE03197F1F700C06C
S11301D000009BB39B7F9BBBEFE9FFE03197F1F7F6
S11301E000C0000080FF04C098B3916098BB03C0B6
S11301F098B39E7F98BB81FF04C098B3926098BB6C
S113020003C098B39D7F98BB82FF04C098B39460E9
S113021098BB03C098B39B7F98BB83FF04C088B38B
S1130220806188BB03C088B38F7E88BB8BB3846036
S11302308BBB8FE99FE00197F1F700C000008BB3FF
S11302408B7F8BBBEFE9FFE03197F1F700C0000033
S113025008958AB388608ABB8AB384608ABB87B3F3
S1130260816087BB87B3826087BB87B3846087BBA9
S113027087B3806187BB2FEF89EF90E021508040E6
S11302809040E1F700C0000082E00E94B90088E2DB
S11302900E94B9008CE00E94B90086E00E94B90077
S11302A081E00E94B9002FEF86E791E02150804061
S11302B09040E1F700C0000008950F931F93CF937F
S11302C0DF93CDB7DEB72A970FB6F894DEBF0FBE23
S11302D0CDBF99234CF490958095709561957F4F8F
S11302E08F4F9F4F01E001C000E06115710581054A
S11302F09105D1F480E30E94490031C02AE030E046
S113030040E050E00E949A03E1E0F0E0EC0FFD1FB2
S1130310E10FF11D17FDFA95605D6083622F732F65
S1130320842F952F1F5F01C010E0611571058105B1
S1130330910521F71150013081F48DE20E944900AA
S11303400CC0E1E0F0E0EC0FFD1FE10FF11D17FD23
S1130350FA9580810E9449001150112394F72A963E
S11303600FB6F894DEBF0FBECDBFDF91CF911F91C2
S11303700F9108950F931F93CF938C01C0E003C096
S11303800E944900CF5FF801EC0FF11D80818111BB
S1130390F7CFCF911F910F91089541E00E9447023A
S11303A008958234A1F018F4813431F0089583342F
S11303B0C9F0843411F108952BB381E090E002C0B8
S11303C0880F991F6A95E2F782278BBB089528B39B
S11303D081E090E002C0880F991F6A95E2F78227B6
S11303E088BB089525B381E090E002C0880F991F6F
S11303F06A95E2F7822785BB089522B381E090E0F5
S113040002C0880F991F6A95E2F7822782BB08957C
S1130410809170009091710084389E4141F465E0B0
S113042081E40E94D10110927100109270008091B9
S11304307000909171000196909371008093700008
S1130440909361008093600008950E94290165E003
S113045081E40E94CD010E9434030E94380388E0A5
S113046092E00E9448030E944D030E94300382E6FA
S113047090E00E94BA0180EC0E94B9006091600093
S11304807091610080E090E00E945D01F4CF411121
S11304903BC08234A9F018F4813431F008958334D8
S11304A0D9F0843429F108952AB381E090E002C0A0
S11304B0880F991F6A95E2F7809582238ABB089575
S11304C027B381E090E002C0880F991F6A95E2F794
S11304D08095822387BB089524B381E090E002C015
S11304E0880F991F6A95E2F78095822384BB08954B
S11304F021B381E090E002C0880F991F6A95E2F76A
S11305008095822381BB08958234A1F018F481344C
S113051031F008958334C9F0843411F108952AB375
S113052081E090E002C0880F991F6A95E2F7822B60
S11305308ABB089527B381E090E002C0880F991F19
S11305406A95E2F7822B87BB089524B381E090E09B
S113055002C0880F991F6A95E2F7822B84BB089525
S113056021B381E090E002C0880F991F6A95E2F7F9
S1130570822B81BB08951F920F920FB60F92112404
S11305802F933F934F935F936F937F938F939F9397
S1130590AF93BF93EF93FF93E0917600F0917700D0
S11305A00995FF91EF91BF91AF919F918F917F91A9
S11305B06F915F914F913F912F910F900FBE0F90CC
S11305C01F9018951F920F920FB60F9211242F931C
S11305D03F934F935F936F937F938F939F93AF93C7
S11305E0BF93EF93FF93E0917400F0917500099528
S11305F0FF91EF91BF91AF919F918F917F916F91F7
S11306005F914F913F912F910F900FBE0F901F90CC
S113061018951F920F920FB60F9211242F933F93A8
S11306204F935F936F937F938F939F93AF93BF93F6
S1130630EF93FF93E0917200F09173000995FF919D
S1130640EF91BF91AF919F918F917F916F915F9146
S11306504F913F912F910F900FBE0F901F901895BF
S11306608FB780688FBF08958FB78F778FBF089536
S113067083B7877F83BF83B78F7B83BF83B78B7F2A
S113068083BF83B7826083BF83B78E7F83BF0895A0
S11306909093790080937800089589B7816089BF29
S11306A008951F920F920FB60F9211242F933F9328
S11306B04F935F936F937F938F939F93AF93BF9366
S11306C0EF93FF93E0917800F09179000995FF9101
S11306D0EF91BF91AF919F918F917F916F915F91B6
S11306E04F913F912F910F900FBE0F901F9018952F
S11306F0A1E21A2EAA1BBB1BFD010DC0AA1FBB1F22
S1130700EE1FFF1FA217B307E407F50720F0A21B93
S1130710B30BE40BF50B661F771F881F991F1A9400
S113072069F760957095809590959B01AC01BD012A
S1130730CF010895052E97FB1EF400940E94B10387
S113074057FD07D00E94780307FC03D04EF40C94A5
S1130750B10350954095309521953F4F4F4F5F4FD2
S1130760089590958095709561957F4F8F4F9F4F19
S10907700895F894FFCF88
S1130776C80048656C6C6F204E617373696621000E
S9030000FC
