S01300004170706C69636174696F6E2E737265639D
S11300000C942A000C94BB010C94E2010C94090298
S11300100C9447000C9447000C9447000C94470040
S11300200C9447000C9447000C9457020C94300233
S11300300C9447000C9447000C9447000C94470020
S11300400C9447000C9447000C9447000C94470010
S11300500C94470011241FBECFE5D8E0DEBFCDBF0E
S113006010E0A0E6B0E0E0E0F5E002C005900D92FB
S1130070AE36B107D9F720E0AEE6B0E001C01D927C
S1130080A637B207E1F70E9470010C947E020C942B
S113009000009BB398609BBB84FF04C098B391603D
S11300A098BB03C098B39E7F98BB85FF04C098B3E8
S11300B0926098BB03C098B39D7F98BB86FF04C031
S11300C098B3946098BB03C098B39B7F98BB882374
S11300D024F498B3906198BB03C098B39F7E98BBF7
S11300E09BB394609BBBEFE9FFE03197F1F700C04D
S11300F000009BB39B7F9BBBEFE9FFE03197F1F7D7
S113010000C0000080FF04C098B3916098BB03C096
S113011098B39E7F98BB81FF04C098B3926098BB4C
S113012003C098B39D7F98BB82FF04C098B39460CA
S113013098BB03C098B39B7F98BB83FF04C088B36C
S1130140806188BB03C088B38F7E88BB8BB3846017
S11301508BBB8FE99FE00197F1F700C000008BB3E0
S11301608B7F8BBBEFE9FFE03197F1F700C0000014
S113017008959BB3977F9BBB84FF04C098B39160A1
S113018098BB03C098B39E7F98BB85FF04C098B307
S1130190926098BB03C098B39D7F98BB86FF04C050
S11301A098B3946098BB03C098B39B7F98BB882393
S11301B024F498B3906198BB03C098B39F7E98BB16
S11301C09BB394609BBBEFE9FFE03197F1F700C06C
S11301D000009BB39B7F9BBBEFE9FFE03197F1F7F6
S11301E000C0000080FF04C098B3916098BB03C0B6
S11301F098B39E7F98BB81FF04C098B3926098BB6C
S113020003C098B39D7F98BB82FF04C098B39460E9
S113021098BB03C098B39B7F98BB83FF04C088B38B
S1130220806188BB03C088B38F7E88BB8BB3846036
S11302308BBB8FE99FE00197F1F700C000008BB3FF
S11302408B7F8BBBEFE9FFE03197F1F700C0000033
S113025008958AB388608ABB8AB384608ABB87B3F3
S1130260816087BB87B3826087BB87B3846087BBA9
S113027087B3806187BB2FEF89EF90E021508040E6
S11302809040E1F700C0000082E00E94B90088E2DB
S11302900E94B9008CE00E94B90086E00E94B90077
S11302A081E00E94B9002FEF86E791E02150804061
S11302B09040E1F700C0000008950F931F93CF937F
S11302C08C01C0E003C00E944900CF5FF801EC0F2D
S11302D0F11D80818111F7CFCF911F910F91089566
S11302E0CF93DF931F92CDB7DEB70E94290180E63A
S11302F090E00E945D0180EC0E94B90087E690E0E6
S11303000E945D0111E4612F8BE790E00E94A60139
S113031086E80E94B900812F0E944900BE016F5FE8
S11303207F4F8BE790E00E94B10186EC0E94B900F8
S113033089810E9449001F5F2FEF83ED90E32150D4
S113034080409040E1F700C00000DDCFE199FECF8E
S11303508EBB6DBB8CB384608CBB8CB382608CBB56
S11303600895E199FECF8EBB8CB381608CBB8DB3B5
S1130370FB01808308951F920F920FB60F921124F0
S11303802F933F934F935F936F937F938F939F9399
S1130390AF93BF93EF93FF93E0917200F0917300DA
S11303A00995FF91EF91BF91AF919F918F917F91AB
S11303B06F915F914F913F912F910F900FBE0F90CE
S11303C01F9018951F920F920FB60F9211242F931E
S11303D03F934F935F936F937F938F939F93AF93C9
S11303E0BF93EF93FF93E0917000F0917100099532
S11303F0FF91EF91BF91AF919F918F917F916F91F9
S11304005F914F913F912F910F900FBE0F901F90CE
S113041018951F920F920FB60F9211242F933F93AA
S11304204F935F936F937F938F939F93AF93BF93F8
S1130430EF93FF93E0916E00F0916F000995FF91A7
S1130440EF91BF91AF919F918F917F916F915F9148
S11304504F913F912F910F900FBE0F901F901895C1
S11304601F920F920FB60F9211242F933F934F9325
S11304705F936F937F938F939F93AF93BF93EF9308
S1130480FF93E0917400F09175000995FF91EF914D
S1130490BF91AF919F918F917F916F915F914F9198
S11304A03F912F910F900FBE0F901F9018951F92A0
S11304B00F920FB60F9211242F933F934F935F9394
S11304C06F937F938F939F93AF93BF93EF93FF9318
S11304D0E0917400F09175000995FF91EF91BF913F
S11304E0AF919F918F917F916F915F914F913F91C8
S11304F02F910F900FBE0F901F901895F894FFCF77
S111050053656E743A2000526563693A200018
S9030000FC
