S01300004170706C69636174696F6E2E737265639D
S11300000C9434000C9483020C94AA020C94D10234
S11300100C9451000C9451000C9451000C94510018
S11300200C9451000C9451000C9451000C94510008
S11300300C9451000C9451000C9451000C945100F8
S11300400C9451000C9451000C9451000C945100E8
S11300500C9451008F009C00A900B600C300D0008E
S1130060DD00EA00F700040111241FBECFE5D8E04B
S1130070DEBFCDBF10E0A0E6B0E0ECE4F6E002C0E5
S113008005900D92A236B107D9F720E0A2E6B0E0C0
S113009001C01D92A836B207E1F70E9422010C9418
S11300A024030C9400008FEF87BB88BB8AB3846061
S11300B08ABB8AB388608ABB0895E82F8BB38860B3
S11300C08BBB8BB384608BBB88B3806288BB88B3E3
S11300D0806488BB623069F018F4613031F014C078
S11300E0633059F0643069F00FC08BB3877F8BBBEA
S11300F00BC08BB38B7F8BBB07C088B38F7D88BB52
S113010003C088B38F7B88BB8E2F90E08A30910523
S113011008F086C0FC01E65DFF4F0C941E0388B313
S11301208F7E88BB88B38B7F88BB88B38D7F88BB69
S113013088B38E7F88BB74C088B38F7E88BB88B336
S11301408B7F88BB88B38D7F88BB88B3816088BB75
S113015067C088B38F7E88BB88B38B7F88BB88B326
S1130160826088BB88B38E7F88BB5AC088B38F7E79
S113017088BB88B38B7F88BB88B3826088BB88B315
S1130180816088BB4DC088B38F7E88BB88B3846090
S113019088BB88B38D7F88BB88B38E7F88BB40C003
S11301A088B38F7E88BB88B3846088BB88B38D7F17
S11301B088BB88B3816088BB33C088B38F7E88BB1B
S11301C088B3846088BB88B3826088BB88B38E7F21
S11301D088BB26C088B38F7E88BB88B3846088BB05
S11301E088B3826088BB88B3816088BB19C088B338
S11301F0806188BB88B38B7F88BB88B38D7F88BBC5
S113020088B38E7F88BB0CC088B3806188BB88B3F9
S11302108B7F88BB88B38D7F88BB88B3816088BBA4
S11302208FE99FE00197F1F700C0000008958091E5
S11302306000813019F410926000089581E0809389
S1130240600008950E94530062E081E00E94F7017B
S113025061E087E191E00E946E020E94F802C12CE5
S1130260D12C76010F2EFAE08F2E912CA12CB12CDB
S1130270F02DC701B601A50194010E94FC022901D9
S11302803A01862F61E00E945D00C301B201A5011D
S113029094010E94FC02862F62E00E945D00C70167
S11302A0B60124E630E040E050E00E94FC02CA01BE
S11302B0B901A50194010E94FC02862F63E00E940B
S11302C05D00C701B60128EE33E040E050E00E9433
S11302D0FC02CA01B901A50194010E94FC02862F07
S11302E064E00E945D0080916000882331F08FEF0C
S11302F0C81AD80AE80AF80AB5CF81E0C81AD108A2
S1130300E108F108AFCF41113BC08234A9F018F4E1
S1130310813431F008958334D9F0843429F1089577
S11303202AB381E090E002C0880F991F6A95E2F732
S1130330809582238ABB089527B381E090E002C0B0
S1130340880F991F6A95E2F78095822387BB0895E9
S113035024B381E090E002C0880F991F6A95E2F708
S11303608095822384BB089521B381E090E002C08C
S1130370880F991F6A95E2F78095822381BB0895BF
S11303808234A1F018F4813431F008958334C9F033
S1130390843411F108952AB381E090E002C0880FFB
S11303A0991F6A95E2F7822B8ABB089527B381E0EF
S11303B090E002C0880F991F6A95E2F7822B87BBF1
S11303C0089524B381E090E002C0880F991F6A95D4
S11303D0E2F7822B84BB089521B381E090E002C050
S11303E0880F991F6A95E2F7822B81BB0895CF93FA
S11303F0C62F813089F120F0823009F459C06CC0D5
S11304008BB780648BBF40E062E084E40E94830188
S1130410C13069F028F0C23089F0C330B1F05CC05B
S113042085B78D7F85BF85B78E7F85BF55C085B75E
S11304308D7F85BF85B7816085BF4EC085B78260DB
S113044085BF85B78E7F85BF47C085B7826085BF6E
S113045085B7816085BF40C08BB780688BBF40E0A3
S113046063E084E40E948301C13069F028F0C23063
S113047089F0C330B1F030C085B7877F85BF85B7B9
S11304808B7F85BF29C085B7877F85BF85B784608B
S113049085BF22C085B7886085BF85B78B7F85BF40
S11304A01BC085B7886085BF85B7846085BF14C0CD
S11304B08BB780628BBF40E062E082E40E948301DC
S11304C0C23019F0C33029F007C084B78F7B84BFD2
S11304D003C084B7806484BFCF910895613049F02C
S11304E018F0623059F00895909367008093660085
S11304F00895909365008093640008959093630039
S11305008093620008951F920F920FB60F921124E8
S11305102F933F934F935F936F937F938F939F9307
S1130520AF93BF93EF93FF93E0916600F091670060
S11305300995FF91EF91BF91AF919F918F917F9119
S11305406F915F914F913F912F910F900FBE0F903C
S11305501F9018951F920F920FB60F9211242F938C
S11305603F934F935F936F937F938F939F93AF9337
S1130570BF93EF93FF93E0916400F09165000995B8
S1130580FF91EF91BF91AF919F918F917F916F9167
S11305905F914F913F912F910F900FBE0F901F903D
S11305A018951F920F920FB60F9211242F933F9319
S11305B04F935F936F937F938F939F93AF93BF9367
S11305C0EF93FF93E0916200F09163000995FF912E
S11305D0EF91BF91AF919F918F917F916F915F91B7
S11305E04F913F912F910F900FBE0F901F90189530
S11305F08FB780688FBF0895A1E21A2EAA1BBB1B78
S1130600FD010DC0AA1FBB1FEE1FFF1FA217B307DA
S1130610E407F50720F0A21BB30BE40BF50B661FF0
S1130620771F881F991F1A9469F7609570958095B4
S113063090959B01AC01BD01CF010895EE0FFF1F02
S10F06400590F491E02D0994F894FFCF8C
S105064C0100A7
S9030000FC
